:020000040000fa
:080000000002040000000000f2
:020000040000fa
:04000800ac03000045
:020000040000fa
:04000c00be0300002f
:020000040000fa
:04001000d603000013
:020000040000fa
:04001400b403000031
:020000040000fa
:04001800c60300001b
:020000040000fa
:04001c00ce0300000f
:020000040000fa
:04002000de030000fb
:020000040000fa
:040024005c05000077
:020000040000fa
:040028005c05000073
:020000040000fa
:04002c005c0500006f
:020000040000fa
:040030005c0500006b
:020000040000fa
:040034005a0400006a
:020000040000fa
:040038005c05000063
:020000040000fa
:04003c005c0500005f
:020000040000fa
:040040005c0500005b
:020000040000fa
:040044005c05000057
:020000040000fa
:040048005c05000053
:020000040000fa
:04004c005c0500004f
:020000040000fa
:040050003a0500006d
:020000040000fa
:04005400de040000c6
:020000040000fa
:040058008804000018
:020000040000fa
:04005c00e6030000b7
:020000040000fa
:040060005c0500003b
:020000040000fa
:040064005c05000037
:020000040000fa
:040068005c05000033
:020000040000fa
:04006c005c0500002f
:020000040000fa
:040070005c0500002b
:020000040000fa
:040074005c05000027
:020000040000fa
:040078005c05000023
:020000040000fa
:04007c005c0500001f
:020000040000fa
:040080005c0500001b
:020000040000fa
:040084005c05000017
:020000040000fa
:040088005c05000013
:020000040000fa
:04008c005c0500000f
:020000040000fa
:040090005c0500000b
:020000040000fa
:040094005c05000007
:020000040000fa
:040098005c05000003
:020000040000fa
:04009c005c050000ff
:020000040000fa
:0400a0005003000009
:020000040000fa
:0400a400fa0200005c
:020000040000fa
:0400a8005c050000f3
:020000040000fa
:0400ac005c050000ef
:020000040000fa
:0400b0005c050000eb
:020000040000fa
:0400b4005c050000e7
:020000040000fa
:0400b8005c050000e3
:020000040000fa
:0400bc005c050000df
:020000040000fa
:0400c0005c050000db
:020000040000fa
:0400c4005c050000d7
:020000040000fa
:0400c8005c050000d3
:020000040000fa
:0400cc005c050000cf
:020000040000fa
:0400d0005c050000cb
:020000040000fa
:0400d4005c050000c7
:020000040000fa
:0400d8005c050000c3
:020000040000fa
:0400dc005c050000bf
:020000040000fa
:0400e0005c050000bb
:020000040000fa
:0400e4005c050000b7
:020000040000fa
:0400e8005c050000b3
:020000040000fa
:0400ec005c050000af
:020000040000fa
:0400f0005c050000ab
:020000040000fa
:0400f4005c050000a7
:020000040000fa
:0400f8005c050000a3
:020000040000fa
:0400fc005c0500009f
:020000040000fa
:040100005c0500009a
:020000040000fa
:040104005c05000096
:020000040000fa
:040108005c05000092
:020000040000fa
:04010c005c0500008e
:020000040000fa
:040110005c0500008a
:020000040000fa
:040114005c05000086
:020000040000fa
:040118005c05000082
:020000040000fa
:04011c005c0500007e
:020000040000fa
:040120005c0500007a
:020000040000fa
:040124005c05000076
:020000040000fa
:040128005c05000072
:020000040000fa
:04012c0024050000a6
:020000040000fa
:040130009603000032
:020000040000fa
:040134005c05000066
:020000040000fa
:040138005c05000062
:020000040000fa
:04013c005c0500005e
:020000040000fa
:040140005c0500005a
:020000040000fa
:040144005c05000056
:020000040000fa
:040148005c05000052
:020000040000fa
:04014c005c0500004e
:020000040000fa
:040150005c0500004a
:020000040000fa
:040154005c05000046
:020000040000fa
:040158005c05000042
:020000040000fa
:04015c005c0500003e
:020000040000fa
:040160005c0500003a
:020000040000fa
:040164005c05000036
:020000040000fa
:040168005c05000032
:020000040000fa
:04016c005c0500002e
:020000040000fa
:040170005c0500002a
:020000040000fa
:040174005c05000026
:020000040000fa
:040178005c05000022
:020000040000fa
:04017c005c0500001e
:020000040000fa
:040180005c0500001a
:020000040000fa
:040184005c05000016
:020000040000fa
:040188005c05000012
:020000040000fa
:04018c005c0500000e
:020000040000fa
:040190005c0500000a
:020000040000fa
:040194005c05000006
:020000040000fa
:040198005c05000002
:020000040000fa
:04019c005c050000fe
:020000040000fa
:0401a0005c050000fa
:020000040000fa
:0401a4005c050000f6
:020000040000fa
:0401a8005c050000f2
:020000040000fa
:0401ac005c050000ee
:020000040000fa
:0401b0005c050000ea
:020000040000fa
:0401b4005c050000e6
:020000040000fa
:0401b8005c050000e2
:020000040000fa
:0401bc005c050000de
:020000040000fa
:0401c0005c050000da
:020000040000fa
:0401c4005c050000d6
:020000040000fa
:0401c8005c050000d2
:020000040000fa
:0401cc005c050000ce
:020000040000fa
:0401d0005c050000ca
:020000040000fa
:0401d4005c050000c6
:020000040000fa
:0401d8005c050000c2
:020000040000fa
:0401dc005c050000be
:020000040000fa
:0401e0005c050000ba
:020000040000fa
:0401e4005c050000b6
:020000040000fa
:0401e8005c050000b2
:020000040000fa
:0401ec005c050000ae
:020000040000fa
:0401f0005c050000aa
:020000040000fa
:0401f4005c050000a6
:020000040000fa
:0401f8005c050000a2
:020000040000fa
:0401fc005c0500009e
:020000040000fa
:040200005c05000099
:020000040000fa
:040204005c05000095
:020000040000fa
:040208005c05000091
:020000040000fa
:04020c005c0500008d
:020000040000fa
:040210005c05000089
:020000040000fa
:040214005c05000085
:020000040000fa
:040218005c05000081
:020000040000fa
:04021c005c0500007d
:020000040000fa
:040220005c05000079
:020000040000fa
:040224005c05000075
:020000040000fa
:040228005c05000071
:020000040000fa
:04022c005c0500006d
:020000040000fa
:040230005c05000069
:020000040000fa
:040234005c05000065
:020000040000fa
:040238005c05000061
:020000040000fa
:04023c005c0500005d
:020000040000fa
:040240005c05000059
:020000040000fa
:040244005c05000055
:020000040000fa
:040248005c05000051
:020000040000fa
:04024c005c0500004d
:020000040000fa
:040250005c05000049
:020000040000fa
:040254005c05000045
:020000040000fa
:040258005c05000041
:020000040000fa
:04025c005c0500003d
:020000040000fa
:040260005c05000039
:020000040000fa
:040264005c05000035
:020000040000fa
:040268005c05000031
:020000040000fa
:04026c005c0500002d
:020000040000fa
:040270005c05000029
:020000040000fa
:040274005c05000025
:020000040000fa
:040278005c05000021
:020000040000fa
:04027c005c0500001d
:020000040000fa
:040280005c05000019
:020000040000fa
:10040000ef5b21000eff27000e01880000000000b6
:10041000000020000000e000020032000001200087
:100420002002880014000700a50107000000e0007a
:1004300003003a00a017220001002000020037004c
:100440000000200001002000810f70000100320038
:100450000f000700000020000000e0000200320052
:100460000000020000000000a013020000000000d5
:100470000040da000000fe00200020000000e00044
:1004800002003200100020009001880000000600e9
:10049000a1028800800478000000eb001f003700f4
:1004a000e284440054a0b4009905ba00e2844400f8
:1004b00054a0b4009906ba00e284440054a0b400e9
:1004c0000006eb00476fde00fd07b200ae018800ba
:1004d000636ce10003003a000ad801000000eb0061
:1004e0000e003700606ce10008003a00004deb00a0
:1004f0000a05e800020039003420ec000af0a000f0
:100500008b05e900f9ff3e00040037006168e10057
:10051000010032000086eb000b00070019c7ba008b
:100520000e04e0001905ba0003003a000a00e000da
:10053000dbff3a0000000600fe07b200ae028800b2
:100540008a047800f5ff37000cd0a300e20f4d00bd
:100550001c00390089027800354dba000a05e80010
:10056000020039003420ec000af0a0008b05e900fd
:100570000f003200254dba000a05e80002003900dc
:100580003420ec000af0a0008b05e90008003200de
:100590000c00e0000600320015cdba000a05e800a4
:1005a000020039003420ec000af0a0008b05e900bd
:1005b0008984e80054a0b4000b00e000e2ff3a0098
:1005c000000006009902ba00055d78008b05e9007d
:1005d000f7ff3200c82ade00055d78008b05e900d0
:1005e000f3ff32000c00e000f1ff320019ddba0029
:1005f000eeff3700809fbe000000fa00a1a8800037
:1006000000202000008060000000e00002003200b6
:1006100023e8a9001f00370003e8a90018003700ed
:1006200090a88000104078000080fb00a011880096
:1006300090a880000000e80090a8880091a88000a1
:1006400080542100808f500002003a006051210048
:1006500090a88800a0a880000080a100a0a8880021
:1006600091a8800080a88000808f500004003a008c
:10067000a0a880000090a000a0a888000500370076
:100680009111800000202000008060000000e00048
:10069000e3ff32000080fa004f00be000040060079
:1006a000809fbe000000fa001800370060a880009c
:1006b000b1118000814078000148780060a8800076
:1006c0000000e80060a8880061a88000a057210011
:1006d000808f500002003a008054210060a88800fa
:1006e000a0a880000010a100a0a8880061a8800038
:1006f00070a88000808f500004003a00a0a88000fd
:100700000000a000a0a8880004003700901180001d
:10071000610060000000e000e4ff3a0003c8a900a7
:100720000080fa004f00be0000400600801f7800e5
:100730000000fa0090118000620060000000e000fc
:10074000010032003222a9000848a9000080fa0006
:100750004f007800004006003600f800c028a900cd
:100760000000eb002f1307003600f80031130700dc
:10077000c048a900100020002a1307003600f80026
:10078000c068a90020002000261307003600f800ea
:10079000c088a90030002000221307003600f800ae
:1007a000c0a8a900400020001e1307003600f80072
:1007b000c608a900700020001a1307003600f800d0
:1007c000c488a900a000200016130700809fbe0067
:1007d000821f78003200f8003400f800100020007a
:1007e000a001880010002000900188000000000097
:1007f0000000fa00f180800010032000808f50007c
:1008000017003c00f08080000118800000014000cb
:10081000804a21000000410001087800f08080003b
:1008200080004000804a2100008040009000780055
:1008300000818000808f500006003600f08080002c
:1008400080004000804a21000080400010007800b5
:1008500000818800f08080000000e800f0808800bf
:1008600010188000c0a4880020188000d0a4880040
:1008700030188000e0a4880040188000f0a48800b0
:100880005018800000a588006018800010a588001e
:100890007018800020a5880001a8a9000080fa0037
:1008a0003400f9003200f9004f0178004f00be001b
:1008b000004006003600f800809fbe00829fbe0008
:1008c000849fbe00869fbe000000fa0069120700e8
:1008d000905b2100104078008040e800905b210090
:1008e00001487800805b210011c0b3000148780006
:1008f0000068a9000080fa004f03be004f02be004e
:100900004f01be004f00be003600f9000040060057
:10091000809fbe000000fa00a1928000002020000d
:10092000008060000000e000020032002188a90081
:100930001f0037000188a90018003700909280003e
:10094000104078000080fb00201188009092800009
:100950000000e800909288009192800060352100ac
:10096000808f500002003a0060252100909288009c
:10097000a09280000080a100a09288009192800047
:1009800080928000808f500004003a00a092800086
:100990000090a000a092880005003700111180008f
:1009a00000202000008060000000e000e3ff320033
:1009b0000080fa004f00be0000400600809fbe008d
:1009c0000000fa00180037006092800031118000aa
:1009d0008140780001487800609280000000e800c3
:1009e000609288006192800060372100808f500003
:1009f00002003a006035210060928800a0928000d9
:100a00000010a100a0928800619280007092800086
:100a1000808f500004003a00a09280000000a000e7
:100a2000a09288000400370010118000610060006f
:100a30000000e000e4ff3a000168a9000080fa002d
:100a40004f00be0000400600801f78000000fa0042
:100a500010118000620060000000e0000100320020
:100a60002222a9000828a9000080fa004f0078007f
:100a7000004006000000fa00148ea900148ea900a0
:100a8000148ea900148ea900148ea900148ea9003a
:100a9000148ea900148ea900148ea900148ea9002a
:100aa000148ea900148ea900148ea8000148a90074
:100ab0000080fa00004006000040da000000fe005e
:100ac00000000500889fbe008a9fbe008c1f780032
:100ad000960007009d00330003866c006450e1001f
:100ae0002e0032006420e100330032006150e1004a
:100af0002f0032006120e100310032008585550071
:100b0000eb07b000090020000804200005003700b2
:100b10000804440089844c000a00310006034300a5
:100b200087834b000001530081815b00f8ff330095
:100b30000203be000800a0000804440089844c00a1
:100b4000f6ff3900c639dd00830173000100320071
:100b5000130020008904d1000884d3000998a30061
:100b6000050032000800a7000300a0008904d1009e
:100b70000884d3008b05e8008904d1000884d300e1
:100b80000001eb000281d2002d00070001f0a1005e
:100b90000cf0a70001f0a000750037006420e10010
:100ba000770032000801be000200be00f7ff3700e8
:100bb0006120e100720032006000b800f3ff3700ee
:100bc0000000200001f82700f0ff37000001be0000
:100bd000410007000470a70003f0a10003f8a30080
:100be00013003a006509b100100032000900350019
:100bf0006928e1000200350001002800000005001e
:100c000000004000818048008502e900fcff3a00b6
:100c100000000600f88f4200050035008100d10079
:100c20000080d3008502e800fcff3a0000000600c7
:100c30008000eb00000005006011b800970037004d
:100c400081002000618055000b003d000b0020005a
:100c500061fe2f000100e1001d003400828171005f
:100c6000610164008904d1000884d3000000e80019
:100c7000faff3a0071002000610064000300700078
:100c8000020060000900320061044400e0844c006e
:100c90000988a500050032008b05e8006808e1001e
:100ca00002003a008904d1000884d300f20f20002a
:100cb0000258e10005003d00c75ddd00f907b20004
:100cc0008980750008007800000006000bf82700f6
:100cd0008b00780000000500c70ade00f107b200b3
:100ce000f50fb20008003200e1cf420002003200ee
:100cf0000170a00024000500810f70000100320087
:100d00000408050044000500810f700002003a004d
:100d1000140005008502e9000000400081c0480081
:100d2000fcff3b000170a000240005000004be0091
:100d3000e9ff07000003be000405be000200be007c
:100d4000e5ff0700844f7500000006000200be00aa
:100d50006450e100050036006420e1000200360026
:100d60000968a30001003a000800be000160a0006d
:100d70004f0678004f05be004f04be00000006007d
:100d8000f0ff2f00f1ff2700f9ff3700889fbe001a
:100d90008a9fbe008c1f7800e4ff0700ebff330042
:100da00003866c006450e100240032006420e100fe
:100db000270032006150e100220032006120e10092
:100dc000210032008b854200eb07b1000134b800ee
:100dd000003ab8000804420089844a00013ab80089
:100de0000030b8008880400009014a000400330048
:100df0000000400081804800020149008b05e900a5
:100e0000c909dd00830170000100320013002000d9
:100e1000c814de004814dd004709de001200b200ed
:100e2000c808de000884700085ff070001f0a100fb
:100e30000cf0a70001f0a000cdff37006120e10019
:100e4000cfff32000801be000200be00f7ff3700ee
:100e50006150e100fcff3a00c9ff37006022b80092
:100e6000060220000000d0008180d2000482d2005f
:100e70008582d2000000a0000202520083825a0044
:100e8000030031000202420083824a000000a100f8
:100e90000603e900f3ff3a0000000600889fbe0049
:100ea0008a9fbe00008270000402710004827100fb
:100eb000260032000004be000200be006011b8002f
:100ec0006b092000950220000182cf000a00390042
:100ed0000541b1000082cf00070039000541b10093
:100ee0000982cf00040039000541b1000882cf001b
:100ef000010039000541b1000542520012003200e4
:100f00000a003b0082817100610164008100d10010
:100f10000080d3008984d3000884d3008b05e800c7
:100f20000442e800f7ff3a000700370008044400d5
:100f300089844c0000004800818048008b05e9004e
:100f40000442e900f9ff3a003dff07004f05be00eb
:080f50004f04be000000060082
:020000040000fa
:100f58000000fa002023a8000080fa000000060024
:100f68000400fa00000f7800110798001e007800ae
:100f7800e20f500007003200e30f50000800320073
:100f8800e10f50000a003a009e009000316188008d
:100f9800080037009e009000316288000500370085
:100fa8009e009000316388000000000001003700b7
:100fb800000000000080fa00000006000000fa00af
:100fc800c3e8a80000000000000000000080fa004c
:100fd800000006000000fa00c3e8a90000000000b5
:100fe800000000000080fa00000006000400fa007b
:100ff8002047980060372100104078000080fb00ef
:101008006101b900f0f72f00f1ff2f000200400046
:1010180083804800a200200003002000820f5000b7
:10102800838f580094003e00000601000a00370034
:101038000f0037001f0037000a0037000f00370085
:101048002a00370032003700390037005a003700cd
:101058007e0037008600370010c0b30002f0b700ea
:101068008500370010c0b30007f0b70082003700d2
:1010780010c0b30004f0b7007f00370070372100bc
:10108800104078000080fb00c800dd008037210098
:10109800104078000080fb000080400080a4880099
:1010a80010c0b30010f0b70010c0b30007f0b700cd
:1010b8007100370070372100104078000080fb0075
:1010c800c800dd0080372100104078000080fb0058
:1010d8000080400060a4880010c0b30013f0b7007f
:1010e80010c0b30007f0b700630037007037210065
:1010f80090407800304921000148780010c0b300c2
:1011080014f0b70010c0b30007f0b7005a0037005a
:1011180010c0b30003f0b70010c0b3000ef0b70062
:10112800b0a3800000e0a000b0a388005200370000
:1011380070372100104078000080fb00c800dd00f7
:1011480080372100104078000080fb0000804000bc
:10115800ea00b900000f780040e720009e00780000
:10116800808f500006003e00001920009e00780085
:10117800808f5000020036009e00780051a488003d
:1011880040e720009e007800808f50000400320065
:10119800b0a3800000f0a000b0a3880003003700cf
:1011a800b0a3800000f0a100b0a3880010c0b30075
:1011b80007f0b70030003700703721001040780082
:1011c8000080fb008000eb00c801dd000200200069
:1011d80080372100104078000080fb008000eb0081
:1011e800c000dd00000020000201400083814800ab
:1011f80090372100104078000082fb008002eb004d
:101208004828dd00c820de00810070004820dd008d
:101218000201400083814800a03721001040780077
:101228000080fb008000eb00020040008380480043
:10123800a0a48800b1a4880010c0b30011f0b700c2
:1012480010c0b30007f0b7000b003700703721005b
:10125800104078000004e0000300320010c0b30022
:1012680015f0b700040037001570ef0002003700d2
:101278000000fe00ffff37000080fa0000000600b3
:101288000200fa00004f78000080fa000000060013
:101298000200fa00000f7800c1a380001e00780049
:1012a800808f500008003e00300620009e00780025
:1012b800808f5000040034000dd0bf000004a2004d
:1012c8000004e0000400320034cea900350ea90065
:1012d8000d70ef0029003700140ea800156ea80045
:1012e80010718000700060000000e0000e003a00fd
:1012f8009171800000042000008060000000e00080
:101308000700320034cea9000048210010407800c0
:101318008040e800004821000148780003003700b9
:1013280034cea8000100370034cea8001172800026
:1013380000002800008060000000e0000e003a0075
:101348009171800000102000008060000000e00023
:1013580007003200350ea90000482100104078002f
:101368008040e80000482100014878000300370069
:10137800350ea80001003700350ea800c2a3800072
:1013880050a48000ea00500010c0b300810f510043
:10139800010031000040eb000080fa000000060068
:1013a8000200fa00000f78001e0078004400de00fa
:1013b800004078000080fb00c1042100008040004c
:1013c800104078000080fa00000006000200fa00d1
:1013d800000f78001e0078004400de00004078000e
:1013e8000080fb00c11421000080400010407800fc
:1013f8000080fa00000006000200fa001071800068
:10140800700060000000e00004003a00b0a3800013
:101418000000a000b0a3880003003700b0a380003c
:101428000000a100b0a3880011728000000028000d
:10143800008060000000e00004003a00b0a38000d3
:101448000030a000b0a3880003003700b0a38000dc
:101458000030a100b0a388001171800000022000b4
:10146800008060000000e00004003a00b0a38000a3
:101478000010a000b0a3880003003700b0a38000cc
:101488000010a100b0a38800117080000010200097
:10149800008060000000e00004003a00b0a3800073
:1014a8000040a000b0a3880003003700b0a380006c
:1014b8000040a100b0a388009171800000042000c2
:1014c800008060000000e00004003200b0a380004b
:1014d8000020a000b0a3880003003700b0a380005c
:1014e8000020a100b0a388009171800000102000a6
:1014f800008060000000e00004003200b0a380001b
:101508000050a000b0a3880003003700b0a38000fb
:101518000050a100b0a38800e04721009040780067
:1015280010c5b30080cf500003003e00b0a3800078
:1015380000d0a100b0a38800e047210090407800c7
:1015480070c4b30080cf500003003e00b0a38000f9
:1015580000a0a100b0a38800e047210090407800d7
:1015680040c5b30080cf500006003600b0a380000d
:1015780000d0a000b0a38800b0a3800000a0a10004
:10158800b0a38800b1a380000000220000806000a2
:101598000000e00008003a00e04721009040780091
:1015a800a0c4b30080cf500003003600b0a3800071
:1015b80000a0a000b0a38800c04721009040780098
:1015c800d04721001040780080cf5000030036003b
:1015d800c0472100104f780002003700d047210093
:1015e800104f780050c4b3009e40780080cf500060
:1015f80003003e00b0a3800000b0a100b0a38800a3
:1016080000c4b3009e40780080cf500003003e0025
:10161800b0a380000080a100b0a38800a0c4b300dc
:101628009e40780080cf500006003600b0a38000ae
:1016380000b0a000b0a38800b0a380000080a10083
:10164800b0a38800b1a38000008020000080600063
:101658000000e00007003a0050c4b3009e40780044
:1016680080cf500003003600b0a380000080a000a7
:10167800b0a38800a047210090407800b04721001f
:101688001040780080cf500003003600a0472100aa
:10169800104f780002003700b0472100104f780043
:1016a80000c4b3009e40780080cf500003003e0085
:1016b800b0a3800000c0a100b0a38800b0c3b300ed
:1016c8009e40780080cf500003003e00b0a3800009
:1016d8000090a100b0a3880050c4b3009e407800d9
:1016e80080cf500006003600b0a3800000c0a000e4
:1016f800b0a38800b0a380000090a100b0a3880028
:10170800b1a3800000002100008060000000e0001c
:1017180007003a0000c4b3009e40780080cf500014
:1017280003003600b0a380000090a000b0a388009a
:101738000080fa00000006000600fa002007980062
:101748002e0090008000eb0039fd070002002a00ff
:10175800a34a2400d9fc07006266260063302400ef
:1017680088fd0700020020000312240085fd070001
:10177800008fbe001e0078009e00900011fd07003b
:10178800000078000080fa00000006001200fa004d
:1017980010fe07000000eb00000f78000a00370079
:1017a8001e00780080004000804921000080400031
:1017b800900078001e007800000040000080e800db
:1017c800013778001e0fe8001e007800e70f500070
:1017d800f3ff3600f9fd07001e009000d6ff070052
:1017e800c0a388002e009000edfe0700a14721004d
:1017f800804878003e009000e9fe0700c1472100bc
:10180800804878004e009000f0fe0700e147210074
:10181800804878006e009000e1fe0700b147210083
:10182800804878007e009000ddfe0700d147210047
:1018380080487800f0fe07000080fa0000000600eb
:101848000000fa0040e7200050a488002049210049
:1018580011c0b30001487800e04821008040eb0047
:1018680001487800f0482100e1c3b300014878003e
:101878000080fa00000006000000fa00624721001c
:1018880021c1b30010c9b3004c0707000080fa005b
:10189800000006000000fa006247210021c1b300e1
:1018a80020c9b3007c0707000080fa00000006008a
:1018b8000000fa00a2482100e1c0b30040c9b3000b
:1018c8003e0707000080fa00000006001e00fa002c
:1018d800a0a48000b1a480004808de000040780081
:1018e800004f7800a0a48000b1a480004008de006a
:1018f8000040780010479800a0a48000b1a48000a0
:101908004809dd004800de0000007100c808de005c
:101918000040780020479800a0a48000b1a480006f
:10192800004078003047980080a480004800de001e
:10193800004078004047980080a48000004078006c
:101948005047980010a4800021a480004008de00c1
:10195800004078006047980010a4800021a480000f
:101968004809dd004800de0000007100c808de00fc
:10197800004078007047980010a4800021a48000df
:1019880000407800004f9800108180004800de0079
:1019980000407800104f98001081800000407800c7
:1019a800204f98000080800000407800304f980059
:1019b8001048210010407800404f980015d0bf0013
:1019c800504f98000e017800e1c0b30000ccb3007e
:1019d800120707000080fa00000006000000fa0065
:1019e800a04721009040780020c2b30080cf50006b
:1019f80014003e00b04721009040780020c2b30098
:101a080080cf50000f003e00c04721009040780072
:101a180020c2b30080cf50000a003e00d04721000a
:101a28009040780020c2b30080cf500005003e00ef
:101a38000dd0bf000004a2000004e0000100320045
:101a4800140ea900e04721009040780010c2b300ae
:101a580080cf500006003e000dd0bf000004a20059
:101a68000004e00002003200156ea90001003700f2
:101a7800156ea8000080fa00000006000000fa00b9
:101a880044d0bf000004e000020032008e030700cb
:101a98002300370013d0bf000004e0000400320028
:101aa8000f0407000004e000010032001370ef008b
:101ab80010d0bf000004e000040032002704070033
:101ac8000004e000010032001070ef0012d0bf00e7
:101ad8000004e00004003200560407000004e0009f
:101ae800010032001270ef0014d0bf000004e000c3
:101af80004003200380407000004e000010032004e
:101b08001470ef0011d0bf000004e00004003200a0
:101b1800850407000004e000010032001170ef00a6
:101b28000080fa00000006000000fa001070800033
:101b38004a00de00614060000080fb006100600038
:101b480031a480000100a1000100700030a48800c9
:101b580011738000001020000080600000f0a700d2
:101b68000000ea000000e9004f00de0000407800b5
:101b78000080fb00610060000000400031a480008c
:101b88000110a1000100700030a48800907080004e
:101b98004e00de00614060000080fb0061006000d4
:101ba8004200dd0031a480000120a1000100700086
:101bb80030a48800107380004900de006140600096
:101bc8000080fb00610060004300dd0031a480005c
:101bd8000130a1000100700030a488000080fa00e4
:101be800000006000000fa0014eea9001c30ef0007
:101bf8000080fa00000006000000fa0030a480000f
:101c0800640060000000e0000400320030a480009e
:101c1800620060000000e00005003a001048210062
:101c28008040eb00014878001a30ef008900370047
:101c380010482100104078000080fb00e20f50009f
:101c480069003200e20f500005003c000000e0008f
:101c58000a003200e10f5000200032006a0037000d
:101c6800e40f50003b003200e40f50003300350011
:101c7800e50f5000540032006300370030a48000a4
:101c8800680060000000e00008003a0030a480000e
:101c9800610060000000e00004003a0010482100e4
:101ca80021c0b300014878006a00370030a48000e2
:101cb800680060000000e0000400320010482100c5
:101cc80011c0b300014878006200370010482100b5
:101cd80051c0b300014878005e00370030a480008e
:101ce800680060000000e0004d003a00d0808000ed
:101cf8000000e800d0808800d1808000800c20009f
:101d0800808f5000480036001a30ef0030a4800061
:101d1800610060000000e00004003a001048210063
:101d280021c0b300014878004a003700104821005c
:101d380031c0b30001487800460037001a30ef0080
:101d4800a8ff07001048210041c0b30001487800ef
:101d58004000370030a48000680060000000e00008
:101d680033003a0091708000000820000080600075
:101d78000000e00030003200d08080000000e80061
:101d8800d0808800d1808000800c2000808f500097
:101d98002b0036001a30ef0030a48000610060008c
:101da8000000e00004003a001048210021c0b30000
:101db80001487800270037001048210051c0b300bf
:101dc800014878002300370030a4800061006000db
:101dd8000000e0001c003a001048210021c0b300b8
:101de800014878001b00370030a4800068006000bc
:101df8000000e000160032001048210011c0b300b6
:101e08000148780013003700104821008040eb009b
:101e1800014878001a30ef00000000000d0037007c
:101e2800000000000b003700000000000900370028
:101e38000000000007003700000000000500370020
:101e48000000000003003700000000000100370018
:101e5800000000000080fa00000006000000fa0000
:101e680010482100104078000080fb00e20f50006d
:101e78000c003200e20f500005003c000000e000ba
:101e880014003200e10f500009003200140037003e
:101e9800e40f500009003400e50f50000a0032003a
:101ea8000f003700b0002000008088000c003700c9
:101eb80070002000008088000900370080002000a2
:101ec800008088000600370090002000008088000d
:101ed80003003700a00020000080880000000000f8
:101ee8000080fa00000006000000fa000080800070
:101ef8008000eb002201200003002000820f500028
:101f0800838f58005f013e00000601001200370071
:101f1800270037007e00370093003700a8003700fd
:101f2800bb003700e7003700e6003700e500370060
:101f3800e4003700e3003700ec00370030013700d9
:101f48003c0137005101370050013700bc00370011
:101f5800ca0037000e013700608180000000e800e9
:101f6800608188006181800040062000808f5000d9
:101f7800480136000ed0bf000004e0000200320025
:101f88000040eb000100370010c0b3000df0b700af
:101f980000642000ba01070000642000bf010700a8
:101fa8002c30ef0010002000008088004e01370020
:101fb8006181800030062000808f500008003e00bc
:101fc800608180000000e8006081880000642000d3
:101fd800ab01070000642000b001070008003700cb
:101fe8006181800040062000808f500004003a0084
:101ff8000000eb00a90107000000eb00a0010700aa
:10200800b1a3800000002200008060000000e00012
:102018000a003a00b1a3800000002100008060009f
:102028000000e00005003a00b1a380000080200015
:10203800008060000000e000020032000d70ef0038
:102048002901370004d0bf000004e0000e00320070
:102058000ed0bf000004e000020032000040eb0098
:102068000100370010c0b3000df0b7000064200075
:10207800830107002c30ef0020002000008088003a
:102088000470ef001801370002d0bf000004e00020
:10209800100032000ed0bf000004e0000200320041
:1020a8000040eb000100370010c0b3000df0b7008e
:1020b800c0da2000720107000064200077010700e1
:1020c8002c30ef0020002000008088000270ef0014
:1020d8000501370003d0bf000004e000ef00320024
:1020e8000d70ef0010c0b3000ef0b70000642000c0
:1020f8006301070000642000680107002c30ef002e
:1021080000012000008088000370ef00f60037000f
:102118000ed0bf000004e000020032000040eb00d7
:102128000100370010c0b3000df0b70060818000d7
:102138000000e8006081880061818000400620007e
:10214800808f5000d70036002c30ef00006420004c
:102158004b010700006420005001070030002000f8
:1021680000808800e00037000ed0bf000004e000c7
:10217800020032000040eb000100370010c0b3003d
:102188000df0b700608180000000e80060818800e1
:102198006181800040062000808f5000c300360017
:1021a8002c30ef0040002000008088000000eb0089
:1021b800330107000000eb0038010700ca003700b0
:1021c8000ed0bf000004e000020032000040eb0027
:1021d8000100370010c0b3000df0b7000000eb009d
:1021e800270107000000eb002c01070050a4800025
:1021f80027fc07000004e000ae0032002c30ef009e
:102208000d70ef005000200000808800b6003700f5
:1022180070fb07001e30ef002030ef0067fb07005f
:1022280010002000b080880034aea800042ea8005a
:102238002c30ef006000200000808800aa003700e2
:10224800608180000000e800608188006181800072
:1022580040062000808f5000980036002c30ef0098
:102268000000eb00060107000000eb000b0107006f
:1022780010012000008088009b00370060818000ea
:102288000000e8006081880061818000400620002d
:10229800808f50008b0036000000eb00f80007002c
:1022a8000000eb00fd00070010002000b08088004f
:1022b80034aea8002c30ef00100020000080880009
:1022c800890037003049210010407800e14f500064
:1022d80004003a002c30ef00b00020000080880095
:1022e80081003700ddfe07007f0037006081800035
:1022f8000000e800608188006181800040062000bd
:10230800808f500071003600c0da2000e30007001b
:102318002c30ef00008180006101b90060a48000ca
:102328008000eb00809ab900828bb90086027800a1
:10233800050242000010b800010242008400780043
:102348000271220003002000c2fa07000000780092
:102358001081880010c0b3000ff0b70010c0b300a0
:1023680007f0b700200120000080880010a480003a
:1023780021a4800061004000e080480010a488008b
:1023880021a4880010c0b30012f0b700560037002f
:102398003049210010407800e14f500003003a0016
:1023a800c0002000008088004f00370030a4800063
:1023b800610060000000e0000d003a0060818000cc
:1023c8000000e8006081880061818000c02b200047
:1023d800808f50003f0036003001200000808800c8
:1023e8001048210071c0b300014878003e00370052
:1023f8002c30ef00c0002000008088003a00370031
:10240800608180000000e8006081880061818000b0
:1024180040062000808f5000300036000064200005
:102428009e0007002c30ef00d000200000808800bc
:102438002d003700608180000000e800608188007e
:102448006181800040062000808f50002500360002
:102458002c30ef0010002000008088003049210057
:10246800104078000004e00001003a00ddfd07009c
:102478000000eb00820007000000eb008700070067
:1024880019003700000000001700370000000000a6
:10249800150037000000000013003700000000009e
:1024a80011003700000000000f0037000000000096
:1024b8000d003700000000000b003700000000008e
:1024c8000900370000000000070037000000000086
:1024d800050037000000000003003700000000007e
:1024e80001003700000000000080fa00000006002c
:1024f8000000fa0024d0bf000040e80024f0b70034
:10250800410221009140780000c2b30080cf500002
:10251800030036002470ef0010c0b30008f0b700c5
:1025280025d0bf000040e80025f0b70025d0bf0047
:10253800e14f50000300360050a4800054fb070010
:102548002570ef00308180000000e80030818800ad
:1025580031818000a01f2000808f500003003600ca
:102568002630ef0010c0b3000af0b70040818000a9
:102578000000e8004081880041818000f0042000cc
:10258800808f5000030036002830ef0010c0b300e1
:102598000bf0b700508180000000e80050818800ef
:1025a800508180000000e000030032002a30ef0074
:1025b80010c0b3000cf0b7005bfd070030492100e4
:1025c800104078000004e00002003a008afd07008d
:1025d800030037001048210061c0b30001487800ab
:1025e80041fe0700b08080000000e00014003200c7
:1025f800b0808000e10f50000200360034aea90020
:10260800042ea900b08080000000e800b080880097
:10261800b1808000401f2000808f500008003600e5
:102628000ed0bf000004e000020032000040eb00c2
:102638000100370010c0b3000df0b7001630ef00ee
:102648009170800000082000008060000000e00019
:1026580009003a00e08080000000e800e08088007f
:10266800e180800040062000808f50000200360084
:1026780014eea8001c30ef000080fa0000000600ed
:102688000200fa00000f78009e0078002000200069
:1026980033fa07000080fa00000006000200fa0082
:1026a800000f78009e007800100020002cfa070028
:1026b8000080fa00000006000000fa0008d0bf0001
:1026c8000004e0001a0032000fd0bf000004e00050
:1026d800030032006ffc07000f70ef00070037009f
:1026e80007d0bf000004e000030032000770ef00cd
:1026f8006ffc0700010037005ffc07000870ef005f
:10270800207180004600de00614060000004a200e5
:10271800614060000080fb00610060004600dd0051
:10272800217180000160a100010070002071880003
:102738000080fa00000006000200fa0034cea9006a
:10274800350ea900148ea900d10707000000eb0080
:10275800000f7800004821008040eb000148780015
:102768000000eb0080a48800304921008040eb0085
:10277800014878006000b80010a4880021a48800ef
:102788002ffc0700e002070037020700250ea9000a
:10279800eff9070001eca80024cea80001003700db
:1027a80000000000b5fc07000e0407000080fb00d5
:1027b800000f78001e0078000000e00003003400dd
:1027c8001e0078000040780008fa0700600407003f
:1027d8000080fb00000f78001e0078000000e00079
:1027e800030034001e00780000407800a4fa0700b7
:1027f8000cd0bf000004e00027003200150ea8002e
:10280800152ea800e1fb0700207180004800de00bb
:10281800614060000004a200614060000080fb008d
:10282800610060004800dd00217180000180a10086
:102838000100700020718800917080000040200025
:10284800008060000000e000050032009170800008
:1028580000002100008060000000e00004003a0051
:10286800b0a380000060a000b0a388000300370078
:10287800b0a380000060a100b0a38800150ea900d5
:10288800152ea9000080800080407800f0472100c4
:10289800014878000c70ef0087ff07000ad0bf00de
:1028a8000004e000020032000a70ef004bfc070051
:1028b8000bd0bf000004e000b9ff32000b70ef003e
:1028c80002fc0700b7ff37000200fa0044d0bf003f
:1028d8000004e0003a00320001128000007020007d
:1028e800008060000000e00037003a00011280001c
:1028f80000082000008060000000e0003400320082
:102908001170800000202000008060000000e000be
:1029180031003200510421009140780044d0bf00ba
:1029280080cf500003003a004470ef004570ef007c
:102938002a003700148ea900148ea900148ea9004d
:10294800148ea900148ea900148ea900148ea90053
:10295800148ea900148ea900148ea900148ea80044
:1029680045d0bf008080fb0030828000008f40008f
:102978001e0078004800de0061006000a000b3007f
:10298800401288001e007800004078000080fb009c
:102998004012880045d0bf000080fb00a1592100eb
:1029a80000804000104078000080fb004012880042
:1029b80045d0bf000040e80045f0b70007003700e9
:1029c8000000000005003700000000000300370089
:1029d8000000000001003700000000000080fa003d
:1029e800000006000600fa0010079800210798006a
:1029f800148ea900148ea9002148a90041e2a9005b
:102a080041e2a800148ea8001e0090004700de00d6
:102a1800004078000080fb00630060008001b30084
:102a2800401288001e0090000000400040128800fc
:102a38004822ef004822ef004822ef004822ef002a
:102a4800000000000112800000702000008060007b
:102a58000000e000fbff3a000000000001128000c7
:102a680000082000008060000000e000fbff32004a
:102a7800148ea9000148a9002148a900401280002d
:102a8800004f780040128000004f7800401280000c
:102a9800804078002e009000014878002e009000b9
:102aa8000000e80041128000814078000148780069
:102ab8002e0090000080e8004112800081407800dc
:102ac800014878002e009000630040004112800009
:102ad80081407800014878000080fa000000060074
:102ae8000000fa0044d0bf000004e00002003200f9
:102af8000040eb001700370060a480004800de00ab
:102b080080407800a05921000148780060a4800026
:102b180080407800b059210001487800a059210070
:102b280090407800b05921001040780000c0400063
:102b38008040ea00c059210001487800b000200018
:102b48003082880030c0b30044f0b7004570ef0011
:102b580010c0b3000080fa00000006000000fa0070
:102b680044d0bf000004e000020032000040eb0047
:102b78001700370080a480004800de0080407800fd
:102b8800a05921000148780080a480008040780086
:102b9800b059210001487800a059210090407800e0
:102ba800b05921001040780000c040008040ea0081
:102bb800c059210001487800800020003082880038
:102bc80030c0b30044f0b7004570ef0010c0b30048
:102bd8000080fa00000006000000fa0044d0bf00a0
:102be8000004e000020032000040eb000f00370054
:102bf8003049210090407800a05921000148780010
:102c0800a0592100104078008040ea00b059210006
:102c180001487800e00020003082880020c0b3001e
:102c280044f0b7004570ef0010c0b3000080fa0010
:102c3800000006000000fa0044d0bf000004e000d5
:102c4800020032000040eb003500370010a480007d
:102c580021a480004008de0080407800a0592100af
:102c68000148780010a4800021a480004809dd00f4
:102c78004800de0000007100c808de0080407800cf
:102c8800b05921000148780010a4800021a48000d8
:102c980080407800c059210001487800a0592100df
:102ca80090407800b05921001040780080c0400062
:102cb800c05921001040780000c040000040ea00e0
:102cc80080407800d059210001487800a05921009f
:102cd80090407800e059210001487800b05921005f
:102ce80090407800f059210001487800c05921002f
:102cf80090407800005a210001487800d0592100fe
:102d080090407800105a2100014878004630ef00c2
:102d180080c0b30044f0b7004570ef0010c0b300a6
:102d28000080fa00000006000000fa0044d0bf004e
:102d38000004e000020032000040eb002f003700e2
:102d4800a0a48000b1a480004808de00804078007c
:102d5800a059210001487800a0a48000b1a48000f7
:102d68004008de0080407800b05921000148780012
:102d7800a0a48000b1a480004809dd004800de005e
:102d880000007100c808de0080407800c0592100aa
:102d980001487800a0a48000b1a480008040780099
:102da800d059210001487800a059210090407800ae
:102db800b05921001040780080c04000c05921005f
:102dc8001040780080c04000d059210010407800a1
:102dd80000c040000040ea0080407800e05921002f
:102de80001487800000120003082880050c0b300fc
:102df80044f0b7004570ef0010c0b3000080fa003f
:102e0800000006000e00fa005007980061079800bd
:102e180066004700800078005e009000f1fe070021
:102e2800ee4090007e40900080c040000e48900028
:102e380080c040001e48900000cf40001e4078002f
:102e48000004e000100032006600470080007800af
:102e58006e009000e3fe0700ee4090007e40900078
:102e680080c040000e48900080c040001e4890007e
:102e780000cf40001e4078000004e000020032004d
:102e88006000b800170037006e4090000080fb001b
:102e98008000eb00c001dd00020020007e409000b1
:102ea8000082fb008002eb004828dd00c820de001d
:102eb800810070004820dd00020140008381480045
:102ec8000e4890000080fb008000eb0002004000ec
:102ed8008380480010079800210798001e00900082
:102ee800ae0090000080fa00000006000a00fa0018
:102ef8004007980064004700800078004e0090006a
:102f0800b8fe0700ce4090005e40900080c04000b0
:102f18006e40900000cf40001e4078000004e000a2
:102f2800020032000000eb00080037004e4090001d
:102f38000080fb00c800dd005e4090000080fb00c0
:102f480000804000100798001e0090000080fa00e2
:102f5800000006000800fa001007980021079800f2
:102f6800624798002148a90041e2a90041e2a8006f
:102f7800148ea900148ea900148ea900148ea8001e
:102f88001e0090004700de00004078000080fb0033
:102f9800630060008001b300401288001e009000aa
:102fa800000040004012880000000000011280006c
:102fb80000702000008060000000e000fbff3a0085
:102fc800000000000112800000082000008060005e
:102fd8000000e000fbff320040128000004f780044
:102fe80040128000004f78000040eb00004f78004e
:102ff800140037004822ef00000000000112800092
:1030080000702000008060000000e000fbff3a0034
:10301800000000000112800000082000008060000d
:103028000000e000fbff32001e80fb00ae009000b5
:1030380000804000411280008140780001487800fb
:103048001e4fe8006e4090009e40780080cf5000f0
:10305800e8ff3900148ea9000148a9002148a800fa
:103068000080fa00000006002000fa000e00e800c8
:1030780092c1b300800078000000eb00b5ff0700a4
:103088009e4090002e40900080c040003e4090003e
:1030980080c040004e40900000cf40001e407800a5
:1030a8000004e00016003a001e4090000080fb007b
:1030b8008000eb00c001dd00020020002e409000df
:1030c8000082fb008002eb004828dd00c820de00fb
:1030d800810070004820dd00020140008381480023
:1030e8003e4090000080fb008000eb0002004000a2
:1030f8008380480010a4880021a48800230037009a
:10310800de4090006e40900080c040007e409000fd
:1031180080c040000e48900000cf40001e4078005c
:103128000004e00016003a005e4090000080fb00ba
:103138008000eb00c001dd00020020006e4090001e
:103148000082fb008002eb004828dd00c820de007a
:10315800810070004820dd000201400083814800a2
:103168007e4090000080fb008000eb0002004000e1
:103178008380480010a4880021a488000300370039
:103188006000b80010a4880021a488009e48900020
:103198002e48900080c040003e48900000cf40007c
:1031a8001e4078000004e00008003a001e48900025
:1031b8000080fb00c800dd002e4890000080fb0066
:1031c8000080400080a48800020037000000eb0067
:1031d80080a48800ce4890005e48900080c04000df
:1031e8006e48900000cf40001e4078000004e000c8
:1031f80008003a004e4890000080fb00c800dd003f
:103208005e4890000080fb000080400060a48800b9
:10321800020037000000eb0060a48800fe48900020
:103228000e50900000cf40001e4078000004e000df
:1032380004003a00fe489000304921000148780017
:1032480003003700304921008040eb000148780036
:103258009e5090002e50900080c040003e5090003c
:1032680080c040004e50900080c040005e509000ea
:1032780000cf40001e4078000004e0001d003a0026
:103288001e5090000080fb008000eb00c801dd00ac
:10329800020020002e5090000080fb008000eb0010
:1032a800c000dd00000020000201400083814800ca
:1032b8003e5090000082fb008002eb004828dd00b1
:1032c800c820de00810070004820dd0002014000b7
:1032d800838148004e5090000080fb008000eb0086
:1032e8000200400083804800a0a48800b1a48800a0
:1032f800030037006000b800a0a48800b1a48800cb
:103308000080fa00000006000000fa002148a90029
:103318000148a900148ea900148ea900148ea900d2
:10332800148ea900148ea900148ea900148ea90069
:10333800148ea900148ea800900020004012880066
:103348000000000001128000007020000080600072
:103358000000e000fbff3a000000000001128000be
:1033680000082000008060000000e000fbff320041
:1033780000082000401288000000000001128000b0
:1033880000702000008060000000e000fbff3a00b1
:10339800000000000112800000082000008060008a
:1033a8000000e000fbff3200148ea900148ea90073
:1033b800148ea900148ea900148ea900148ea900d9
:1033c800148ea900148ea9000148a9002148a8005c
:1033d8000080fa00000006000400fa0010079800b8
:1033e80080c0b300004f78000100370000000000e3
:1033f8001e00900061006000004078000004e000ba
:10340800080032001e0090000000d100100798004c
:103418009e009000804028000080680010079800f7
:10342800030037001e0090000000d100100798002c
:103438001e4fe9001e4078000004e000ebff3a0050
:103448001e0090000080fa00000006000200fa004a
:10345800004f78009e80fb00a081800000806800fb
:10346800ddff0700a0818800e0c7b3009e40780018
:1034780080cf500004003200d0c7b3009e407800cf
:1034880080cf500004003a00d0c7b300e50207001f
:1034980000c2b3001e4f68001e407800e10207001a
:1034a8000080fa00000006000200fa00004f7800d1
:1034b8009e80fb00f081800000806800c6ff070046
:1034c800f0818800e0c7b3009e40780080cf5000ac
:1034d80004003200d0c7b3009e40780080cf50006f
:1034e80004003a00d0c7b300c801070000c2b30007
:1034f8001e4f68001e407800c40107000080fa00d3
:10350800000006000000fa00e0c7b300c50207008b
:103518000080eb00a08188002ed0bf00cbff070001
:103528000080fa00000006000000fa00e0c7b300bf
:10353800b60107000080eb00f081880038d0bf009a
:10354800d9ff07000080fa00000006000200fa0018
:10355800a08180004800de00004f7800a081800034
:103568000040780000c0ea00b8ff07001ec0ea006b
:10357800b6ff0700e0c7b300aa0207000080fa0000
:10358800000006000200fa00f08180004800de001a
:10359800004f7800f08180000040780000c0ea0009
:1035a800c1ff07001ec0ea00bfff0700e0c7b30065
:1035b800960107000080fa00000006000600fa00e5
:1035c8002047980031479800220798002e41900024
:1035d800e102210082487800caff07000040eb00a2
:1035e800004f7800060037001e80fb00ae009000f8
:1035f800008040001040780094ff07001e4fe8004c
:103608003e4090009e40780080cf5000f6ff390081
:10361800ceff07000080fa00000006000600fa004e
:103628002047980031479800220798002e419000c3
:103638008103210082487800bbff07000040eb00af
:10364800004f7800060037001e80fb00ae00900097
:10365800008040001040780093ff07001e4fe800ec
:103668003e4090009e40780080cf5000f6ff390021
:10367800c4ff07000080fa00000006000400fa00fa
:10368800100798009e009000010f78001e00780037
:103698000080fa00000006000800fa004047980081
:1036a80051479800320798004e419000e1022100ee
:1036b8008248780093ff07000040eb00004f780035
:1036c800060037001e80fb00be009000008040000e
:1036d800104078005dff07001e4fe8005e40900034
:1036e8009e40780080cf5000f6ff39000040eb0084
:1036f800004f78000f0037001e80fb00800040005c
:10370800804a21000080400010007800dbff07009d
:10371800100798001e009000004078004bff07003b
:103728001e0090004800de000040780047ff0700b8
:103738001e4fe80010c3b3009e40780080cf5000b1
:10374800edff360081ff07000080fa000000060048
:103758000600fa0020479800314798002207980091
:103768000040eb00004f7800060037001e80fb0089
:10377800ae00900000804000104078002902070049
:103788001e4fe8003e4090009e40780080cf5000d9
:10379800f6ff39000080fa00000006000000fa0079
:1037a800d0c7b3001f0207006237210061c0b30011
:1037b80090c8b30081ff07000080fa0000000600ef
:1037c8000000fa00d0c7b3001001070062372100db
:1037d80061c0b30090c8b30090ff07000080fa00f2
:1037e800000006000400fa004202070062006000c0
:1037f8000000e00002003a000040eb0052003700f1
:10380800010321009140780011479800d00107007a
:10381800004f78009e40780002032100014978009b
:10382800d0c7b3009e40780080cf500006003a0011
:103838009e409000d0c7b30080cf500041003a00ae
:103848002f70ef003f003700e0c7b3009e407800bc
:1038580080cf500019003a002fd0bf000004e000cc
:10386800140032009e409000d0c7b30080cf5000b3
:10387800100032002fd0bf00e24f50000d0036007c
:1038880091818000800b2f00808f500006003a0045
:103898002fd0bf0000c0e900204798002f70ef002c
:1038a8002e40900028003700b08180000000e8001a
:1038b800b08188002f70ef00220037002fd0bf00a2
:1038c8000004e00004003a009e409000e0c7b30006
:1038d80080cf50001b003a002fd0bf000004e0004a
:1038e80002003a000080eb00908188009e40900022
:1038f800d0c7b30080cf500002003a0000c2b30026
:103908001e4f68002fd0bf000004e00008003500fb
:103918002fd0bf000080fb006137210000804000ed
:103928001e4878002fd0bf000040e8002ff0b700f5
:103938009e80fb009081800000806800a6fe070042
:10394800908188000040eb000080fa00000006002b
:103958000400fa00e1000700620060000000e000d7
:1039680002003a000040eb0052003700a10321009a
:1039780091407800114798006f000700004f7800c9
:103988009e407800a203210001497800d0c7b30007
:103998009e40780080cf500006003a009e4090007c
:1039a800d0c7b30080cf500041003a003970ef0013
:1039b8003f003700e0c7b3009e40780080cf50003a
:1039c80019003a0039d0bf000004e00014003200aa
:1039d8009e409000d0c7b30080cf50001000320046
:1039e80039d0bf00e24f50000d003600e181800061
:1039f800800b2f00808f500006003a002fd0bf00a8
:103a080000c0e900204798003970ef002e40900070
:103a180028003700008280000000e800008288004b
:103a28003970ef002200370039d0bf000004e000f1
:103a380004003a009e409000e0c7b30080cf5000d9
:103a48001b003a0039d0bf000004e00002003a0031
:103a58000080eb00e08188009e409000d0c7b30052
:103a680080cf500002003a0000c2b3001e4f680029
:103a780039d0bf000004e0000800350039d0bf008d
:103a88000080fb00613f2100008040001e48780054
:103a980039d0bf000040e80039f0b7009e80fb0035
:103aa800e0818000008068004bfe0700e08188000c
:103ab8000040eb000080fa00000006000000fa0059
:103ac80080002000801188003222ef00f02c2000b6
:103ad800c011880023c8a80031e2a8003342a8001a
:103ae8006051210090a888006051210080a88800ba
:103af8008054210070a888008054210060a88800a4
:103b0800a0a880000010a000a0a88800a0a880009d
:103b18000090a000a0a88800a0a880000080a100b4
:103b2800a0a88800a0a880000000a100a0a8880084
:103b38000080fa00000006000200fa000040eb00d6
:103b4800004f780070a88000104f780070a880009f
:103b58000000e80070a8880071a88000a057210024
:103b6800808f500002003a008054210070a888001d
:103b780071a8800060a88000808f500003003a0080
:103b8800a0a880000010a000a0a88800a0a880001d
:103b98000000a100a0a888001e4078000080fa005c
:103ba800000006000600fa00881f78001007980039
:103bb800210798000000eb00000f7800090037008b
:103bc800a0a88000620060000000e0000a003a003f
:103bd8001e0090001e044000d7ff0700004c78002c
:103be8001e0fe8002e0090009e007800808f500085
:103bf800f3ff390001003700000000001e007800c4
:103c08004f0478000080fa00000006000200fa0065
:103c1800004f780023e8a90080a880001e4878009b
:103c280080a880000000e80080a8880081a88000a3
:103c380080542100808f500002003a00605121001a
:103c480080a88800a0a880000090a100a0a88800f3
:103c580091a8800080a88000808f500003003a005f
:103c6800a0a880000080a000a0a8880023e8a800e1
:103c78000080fa00000006000600fa00100798000d
:103c8800210798000000eb00000f78000a003700b9
:103c9800a1a8800000102000008060000000e00063
:103ca8000a003a001e0090001e00400010407800f4
:103cb8001e0fe800d5ff07002e0090009e00780038
:103cc800808f5000f2ff390001003700000000002b
:103cd8001e0078000080fa00000006000200fa00ca
:103ce8000000eb00000f7800a1a880000010200061
:103cf800008060000000e000010032001e30a000db
:103d0800a1a8800000202000008060000000e000e2
:103d1800010032001e40a000a0a8800061006000e1
:103d28000000e000010032001e00a000a0a88000f2
:103d3800620060000000e000020032001e20a000c7
:103d4800010037001e10a0001e0078000080fa0055
:103d5800000006000200fa00000f780070a880003a
:103d68009e004000a0572100808f500009003600b7
:103d780070a880009e004000a05721000000ea00c3
:103d880000804000815421000080400010407800ed
:103d98000300370070a880001e0040001040780023
:103da8000080fa00000006000000fa00a0a88000c9
:103db800610060000000e0000f003a0071a8800078
:103dc80060a88000808f50000500360070a8800031
:103dd8008000780060a8800000805000070037004d
:103de80070a880008000780060a8800000805000e3
:103df8002003b000010037000000eb000080fa004b
:103e0800000006000000fa00a1a8800000102000b1
:103e1800008060000000e0000f003a0091a88000d8
:103e280080a88000808f50000500360090a8800090
:103e38008000780080a880000080500007003700cc
:103e480090a880008000780080a880000080500042
:103e58002003b000010037000000eb000080fa00ea
:103e6800000006000000fa00a0a880000000d100b1
:103e7800614060000080fb0000f0a7000000ea003d
:103e88000000ea004f00de00004078000080fa00e1
:103e9800000006000000fa00a0a880004800de002c
:103ea800614060000080fb0000f0a7000000ea000d
:103eb8000000ea004f00de00004078000080fa00b1
:103ec800000006000000fa00901180000080fa004f
:103ed800000006000000fa008000200000118800a1
:103ee8002222ef00f02c2000401188002168a80051
:103ef80021e2a8002342a8006025210090928800b2
:103f08006025210080928800603521007092880029
:103f18006035210060928800a09280000010a00007
:103f2800a0928800a09280000090a000a092880033
:103f3800a09280000080a100a0928800a09280003a
:103f48000000a100a09288000080fa00000006008e
:103f58000200fa000040eb00004f780070928000e9
:103f6800104f7800709280000000e800709288007e
:103f78007192800060372100808f500002003a0063
:103f880060352100709288007192800060928000f4
:103f9800808f500003003a00a09280000010a0001b
:103fa800a0928800a09280000000a100a092880042
:103fb8001e4078000080fa00000006000600fa00a3
:103fc800881f780010079800210798000000eb0070
:103fd800000f780009003700a0928000620060009e
:103fe8000000e0000a003a001e0090001e04400095
:103ff800d7ff0700004c78001e0fe8002e00900045
:104008009e007800808f5000f3ff390001003700d0
:10401800000000001e0078004f0478000080fa00bd
:10402800000006000200fa00004f78002188a9006d
:10403800809280001e487800809280000000e8008e
:10404800809288008192800060352100808f500026
:1040580002003a006025210080928800a09280002a
:104068000090a100a0928800919280008092800028
:10407800808f500003003a00a09280000080a000ca
:10408800a09288002188a8000080fa00000006009d
:104098000600fa0010079800210798000000eb00be
:1040a800000f78000a003700a1928000001020005d
:1040b800008060000000e0000a003a001e00900046
:1040c8001e004000104078001e0fe800d5ff0700d2
:1040d8002e0090009e007800808f5000f2ff39007b
:1040e80001003700000000001e0078000080fa0080
:1040f800000006000200fa000000eb00000f780044
:10410800a192800000102000008060000000e00004
:10411800010032001e30a000a19280000020200083
:10412800008060000000e000010032001e40a00096
:10413800a0928000610060000000e00001003200f1
:104148001e00a000a0928000620060000000e00055
:10415800020032001e20a000010037001e10a0003f
:104168001e0078000080fa00000006000200fa0035
:10417800000f7800709280009e0040006037210098
:10418800808f500009003600709280009e00400029
:10419800603721000000ea000080400061352100fe
:1041a80000804000104078000300370070928000c3
:1041b8001e004000104078000080fa000000060051
:1041c8000000fa00a0928000610060000000e0009a
:1041d8000f003a007192800060928000808f50003a
:1041e80005003600709280008000780060928000a0
:1041f800008050000700370070928000800078002f
:1042080060928000008050000002b000010037007a
:104218000000eb000080fa00000006000000fa0031
:10422800a192800000102000008060000000e000e3
:104238000f003a009192800080928000808f500099
:1042480005003600909280008000780080928000ff
:1042580000805000070037009092800080007800ae
:1042680080928000008050000010b00001003700ec
:104278000000eb000080fa00000006000000fa00d1
:10428800a09280000000d100614060000080fb0027
:1042980000f0a7000000ea000000ea004f00de007e
:1042a800004078000080fa00000006000000fa00d4
:1042b800a09280004800de00614060000080fb00a2
:1042c80000f0a7000000ea000000ea004f00de004e
:1042d800004078000080fa00000006000000fa00a4
:0c42e800101180000080fa0000000600a9
:020000040000fa
:1042f4000c1500006e000000800000007a1500001c
:1043040020000000800000004810000002000000af
:1043140082000000ffff00004a10000002000000bd
:1043240080000000b81500000200000080000000ba
:10433400ba15000002000000800000004c120000ca
:104344002a01000080000000bc15000002000000eb
:10435400800000004c1000000002000082000000f9
:10436400a29f9b00979390008c888400807d7900a5
:1043740075726f006d6a680066646200605f5d005c
:104384005c5a5900585655005453520051504f002e
:104394004e4d4c004b4a49004948470046454500ac
:1043a400444343004241410040403f003e3e3d0003
:1043b4003d3c3c003b3b3a003a3939003838370041
:1043c4003736360035353500343433003332320075
:1043d40032313100313030002f2f2f002e2e2e009d
:1043e4002d2d2d002c2c2c002b2b2b002a2a2a00bf
:1043f40029292900282828002727270027262600de
:1044040026252500252524002424230023232300f6
:10441400222222002221210021212000202020000c
:104424001f1f1f001e1e1e001e1d1d001d1d1d0022
:104434001c1c1c001c1b1b001b1b1a001a1a1a0034
:104444001a19190019191800181818001817170044
:104454001717160016161600161515001515140054
:104464001414140014131300131313001212120063
:1044740012121100111111001110100010100f0070
:104484000f0f0f000f0e0e000e0e0e000e0d0d007e
:104494000d0d0d000c0c0c000c0b0b000b0b0b008a
:1044a4000a0a0a000a0a0900090909000908080099
:1044b4000808080007a29d0098938e0089837e0057
:1044c400797470006d69670064625f005d5b590018
:1044d40058565400535250004f4e4d004b4a490019
:1044e40048474600454544004342410040403f00a0
:1044f4003e3d3d003c3b3b003a3a390038383700fa
:104504003736360035353400343332003232310038
:10451400313030002f2f2e002e2e2d002d2c2c006c
:104524002c2b2b002a2a2a00292929002828270095
:1045340027272700262626002525250024242400b5
:1045440023232300222222002221210021202000d3
:10455400201f1f001f1f1e001e1e1e001d1d1d00ec
:104564001d1c1c001c1c1b001b1b1b001a1a1a0000
:104574001919190019191800181818001717170015
:104584001716160016161600151515001514140026
:104594001414140013131300131312001212120034
:1045a4001111110011111000101010000f0f0f0045
:1045b4000f0f0e000e0e0e000e0e0d000d0d0d0051
:1045c4000d0c0c000c0c0c000b0b0b000b0a0a005e
:1045d4000a0a0a000a09090009090900080808006a
:1045e4000808070007070700070606000606060076
:1045f4000505050005050400040404000404030083
:104604000303030003020200020200007614000008
:104614009600000080000000001000002e00000042
:1046240080000000761300000001000080000000fc
:104634002e10000016000000800000009a150000f3
:104644001e00000080000000441000000400000070
:084654008000000000000000de
:020000040000fa
:10465c000000fa00c3e8a800000000000000000001
:10466c000080fa00000006000200fa00000f78003b
:10467c0021028000200f2000008060001e007000ce
:10468c00200288000080fa00000006000000fa00fa
:10469c00620107000e0007001c03070006fd07005f
:1046ac00b50007000afe070048030700bc0107001d
:1046bc00160207006e020700c4020700e4ff0700a1
:1046cc0000022000e8ff07000080fa00000006004e
:1046dc000000fa0000142300203a88004827ef005d
:1046ec004e27ef0060072000303a88004420a900d4
:1046fc0044c0a90044e0a9004480a9001200200095
:10470c0080072000a1092000337420008049780024
:10471c008149780082497800120020006004200052
:10472c0071052000237420008049780081497800ad
:10473c008249780000000000103a8000610060009f
:10474c000000e000fcff3a000080fa0000000600c8
:10475c000000fa00003a80000080fa000000060019
:10476c000200fa00faff0700000f78001e00780024
:10477c00240007000004e0000200320000002800c2
:10478c00710007001e0078002a0007000004e000fa
:10479c0002003200000024006b0007001e007800ad
:1047ac00320007000004e00002003200002020006c
:1047bc00650007001e0078003a0007000004e000c6
:1047cc0002003200000820005f0007001e00780085
:1047dc00420007000004e000020032000004200048
:1047ec00590007001e0078004a0007000004e00092
:1047fc000200320000012000530007000080fa0084
:10480c00000006000400fa00100798000040eb00be
:10481c00004f78001e0090000000e00002003d00f8
:10482c0010c0b300004f78001e4078000080fa00e2
:10483c00000006000400fa00100798000040eb008e
:10484c00004f78009e009000000024000080600063
:10485c000000e0000200320010c0b300004f7800ee
:10486c001e4078000080fa00000006000400fa00e8
:10487c00100798000040eb00004f78009e0090005d
:10488c0000202000008060000000e00002003200e8
:10489c0010c0b300004f78001e4078000080fa0072
:1048ac00000006000400fa00100798000040eb001e
:1048bc00004f78009e0090000008200000806000ef
:1048cc000000e0000200320010c0b300004f78007e
:1048dc001e4078000080fa00000006000400fa0078
:1048ec00100798000040eb00004f78009e009000ed
:1048fc0000042000008060000000e0000200320094
:10490c0010c0b300004f78001e4078000080fa0001
:10491c00000006000400fa00100798000040eb00ad
:10492c00004f78001e009000700060000000e00056
:10493c000200320010c0b300004f78001e40780017
:10494c000080fa00000006000200fa00000f780058
:10495c009e80ea00003a800000806000003a8800e7
:10496c000080fa00000006000000fa004027ef006b
:10497c000080fa00000006000000fa00001220007f
:10498c00101288001000200020128800400128001e
:10499c00001288000148a9002148a8000080fa00f4
:1049ac00000006000400fa00000f780011079800c0
:1049bc000000000000128000620060000000e000b7
:1049cc00fcff3a001e007800104078000080fb00cd
:1049dc00401288000000000001128000000220003c
:1049ec00008060000000e000fbff3a0040128000f5
:1049fc00804078001e009000014878000080fa008a
:104a0c00000006001800fa00100f9800210f980003
:104a1c00320f98000000eb00000f78000000eb0054
:104a2c00100798000000eb00700798000000eb00e6
:104a3c00000f980010002000600798001e089000de
:104a4c000000e00005003a000000eb005007980061
:104a5c00700047002007980004003700ee0090001b
:104a6c00510798009e089000210798003e0890007e
:104a7c000000e00005003a000000eb004007980041
:104a8c006e0047003007980005003700ee009000dc
:104a9c0041079800be089000310798000000000004
:104aac0000128000620060000000e000fcff3a0091
:104abc001d00370000128000620060000000e00062
:104acc0009003a002e009000104078000080fb0096
:104adc0040128800ae0090005e0090000080400004
:104aec00200798001e0fe800011280000002200031
:104afc00008060000000e0000b003a0040128000d3
:104b0c00804078003e00900001487800be00900084
:104b1c004e00900000804000300798001e0090006e
:104b2c000000e800100798002e0890009e00780006
:104b3c00808f5000dfff3900100037000112800019
:104b4c0000022000008060000000e0000b003a0032
:104b5c0040128000804078003e00900001487800b0
:104b6c00be0090004e00900000804000300798007e
:104b7c001e0090000000e800100798009e009000b6
:104b8c002e089000808f5000ecff39001e0078003a
:104b9c000080fa00000006000400fa00204798008c
:104bac000e80e8008e0078007eff07001e40780023
:104bbc000080fa00000006000600fa00000f7800e2
:104bcc0011079800220798002e0190009e0090007b
:104bdc001e0078008bff07000080fa000000060022
:104bec000000fa00111280000040200000806000dc
:104bfc000000e00002003a000000eb00010037006a
:104c0c00100020000080fa00000006000000fa00ee
:104c1c00001280000080fa00000006000000fa007c
:104c2c00042eef00000c2000a0708800242eef0052
:104c3c00342eef00442eef0020002000a0728800dc
:104c4c00000420002073880010f8210000708800f8
:104c5c00e04025008070880070f32b000071880004
:104c6c00302eef0000002f00007288001000200092
:104c7c008072880000382000007388000c2eef0032
:104c8c001c2eef002c2eef003c2eef004c2eef00d4
:104c9c005c2eef006c2eef0000202000507088007e
:104cac001a2eef002a2eef003a2eef004a2eef00bc
:104cbc005a2eef006a2eef00062eef00162eef0094
:104ccc00262eef00362eef00462eef00562eef006c
:104cdc00662eef00108021007070880020002000ec
:104cec00f070880070802000707188000000270030
:104cfc0070728800113a8000f00b20000081600077
:104d0c006004200071052000237420008049780085
:104d1c0081497800824978002136800000f82f0004
:104d2c0080806000000620000100700020368800a2
:104d3c0081348000f00f2c00808060000030200057
:104d4c0001007000803488003136800000f82f009c
:104d5c0080806000700720000100700030368800f1
:104d6c0071348000f00f2c00008060000080a000e7
:104d7c0070348800103a8000000178000260a000b6
:104d8c006004200071052000237420008049780005
:104d9c0081497800824978000080fa000000060002
:104dac000000fa005000200010608800306f2800ce
:104dbc0020608800062cef001060200050608800f6
:104dcc001a2cef001e2cef00000820000061880058
:104ddc0000082000006288000008200000638800a2
:104dec0000402400e3c1200011322400d2bc2a0070
:104dfc008209780081097800106188000040240045
:104e0c00e3c1200011322400d2bc2a0082097800b0
:104e1c00810978001062880000402000e3c1200066
:104e2c0011322400d2bc2a00820978008109780052
:104e3c0010638800b00f2000e3c120001132240061
:104e4c00d2bc2a0082097800810978002061880090
:104e5c00b00f2000e3c1200011322400d2bc2a0084
:104e6c00820978008109780020628800b00f200048
:104e7c00e3c1200011322400d2bc2a008209780040
:104e8c008109780020638800006020003061880070
:104e9c000060200030628800662cef00282cef00a8
:104eac00482cef00682cef002a2cef004a2cef0066
:104ebc006a2cef002c2cef004c2cef006c2cef002c
:104ecc00322cef00522cef00722cef00342cef0040
:104edc00542cef00742cef003a2cef005a2cef00fe
:104eec007a2cef003c2cef005c2cef007c2cef00bc
:104efc003e2cef005e2cef007e2cef000000280013
:104f0c00006088000080fa00000006000000fa0033
:104f1c000a21ef00e06c20007008880000002800d7
:104f2c0090088800c05b21008040eb0001487800ad
:104f3c000080fa00000006000000fa00014080002a
:104f4c0000102000008060000000e000090032002a
:104f5c00d05b2100104078008040e800d05b21003d
:104f6c0001487800c05b210011c0b30001487800f3
:104f7c000108a9000080fa00000006000200fa00f7
:104f8c00000f78009e00780071088800c05b21003b
:104f9c008040eb00014878000080fa000000060019
:104fac000000fa00700880000080fa000000060083
:104fbc000200fa00000f78009e007800510888006b
:104fcc00c05b21008040eb00014878000080fa00b3
:104fdc00000006000000fa00500880000080fa0073
:104fec00000006000000fa00c05b21008040eb00ce
:104ffc000148780013e1a8000080fa0000000600c8
:10500c000000fa0013e1a9000080fa00000006007d
:10501c000200fa00c05b2100104f78001e4078009f
:10502c000004e00003003200c05b21008040eb0074
:10503c00014878001e4078000080fa00000006004d
:10504c000000fa00d05b2100104078000080fb00cb
:10505c000080fa00000006000000fa00d05b21007e
:10506c008040eb00014878000080fa000000060048
:10507c000000fa000621ef000c21ef001021ef00d8
:10508c00a05b21008040eb00014878000080fa0012
:10509c00000006000000fa0001408000000820001b
:1050ac00008060000000e00009003200b05b2100cd
:1050bc00104078008040e800b05b21000148780087
:1050cc00a05b210011c0b3000148780000e8a900e2
:1050dc000080fa00000006000200fa00000f7800c1
:1050ec009e00780061088800a05b21008040eb00e6
:1050fc00014878000080fa00000006000000fa0069
:10510c00600880000080fa00000006000200fa002f
:10511c00000f78009e00780031088800a05b210009
:10512c008040eb00014878000080fa000000060087
:10513c000000fa00300880000080fa000000060031
:10514c000000fa00a05b21008040eb0001487800d1
:10515c0011e1a8000080fa00000006000000fa002f
:10516c0011e1a9000080fa00000006000200fa001c
:10517c00a05b2100104f78001e4078000004e00076
:10518c0003003200a05b21008040eb000148780056
:10519c001e4078000080fa00000006000000fa00b3
:1051ac00b05b2100104078000080fb000080fa000a
:1051bc00000006000000fa00b05b21008040eb000c
:1051cc00014878000080fa00000006000000fa0098
:1051dc000021ef00306f2800100888000001280023
:1051ec00200888000068a9002068a800805b2100c6
:1051fc008040eb00014878000080fa0000000600b7
:10520c000200fa00000f78009e0078001108880058
:10521c00805b21008040eb00014878000080fa00a0
:10522c00000006000000fa00100880000080fa0060
:10523c00000006000200fa00000f78009e007800c3
:10524c0001088800805b21008040eb000148780059
:10525c000080fa00000006000000fa000008800040
:10526c000080fa00000006000000fa009ff407001e
:10527c000080fa00000006000000fa00805b2100ac
:10528c008040eb00014878002068a80005e1a800e8
:10529c000080fa00000006000000fa0005e1a900f9
:1052ac002068a9000080fa00000006000200fa0045
:1052bc00805b2100104f78001e4078000004e00055
:1052cc0003003200805b21008040eb000148780035
:1052dc001e4078000080fa00000006000000fa0072
:1052ec00905b2100104078000080fb000080fa00e9
:1052fc00000006000000fa00905b21008040eb00eb
:10530c00014878000080fa00000006000000fa0056
:10531c0021428000f08f2f00008060000080a000f0
:10532c002042880001438000f08f2f000080600035
:10533c000080a0000043880071428000f0ff28002c
:10534c000080600000c0a0007042880071428000a4
:10535c00f08f2f00008060000080a0007042880059
:10536c0031428000f0f82f00008060000040a00067
:10537c003042880001438000f0f82f00008060006c
:10538c000040a000004388003142800080ff2f00c5
:10539c00008060000000a0003042880021428000a4
:1053ac00f0ff28000080600000c0a00020428800b0
:1053bc0001428000f0ff28000080600000c0a000c7
:1053cc00004288000080fa00000006000000fa008d
:1053dc00404428000019880000422200101988005f
:1053ec0090f02000201988002823ef002e23ef00d6
:1053fc00107c2600801988002623ef0010198000ed
:10540c004200de007f4060004af0b70021a8a800ef
:10541c000080fa0000000600000f78009e00780063
:10542c0041828800ffff37000000fa00a0572100de
:10543c008007780020592100000188000080fa00c4
:04544c000000060056
:020000040000fa
:020000040005f5
:045fe000cfff0000ef
:020000040000fa
:020000040005f5
:045fe400ffff0000bb
:020000040000fa
:020000040005f5
:045fe8007fff000037
:020000040000fa
:020000040005f5
:045fec007bff000037
:020000040000fa
:020000040005f5
:045ff000f8ff0000b6
:020000040000fa
:020000040005f5
:045ff400ffff0000ab
:00000001FF
