:020000040000fa
:080000000002040000000000f2
:020000040000fa
:04000800b003000041
:020000040000fa
:04000c00c20300002b
:020000040000fa
:04001000da0300000f
:020000040000fa
:04001400b80300002d
:020000040000fa
:04001800ca03000017
:020000040000fa
:04001c00d20300000b
:020000040000fa
:04002000e2030000f7
:020000040000fa
:04002400640500006f
:020000040000fa
:04002800640500006b
:020000040000fa
:04002c006405000067
:020000040000fa
:040030006405000063
:020000040000fa
:040034005e04000066
:020000040000fa
:04003800640500005b
:020000040000fa
:04003c006405000057
:020000040000fa
:040040006405000053
:020000040000fa
:04004400640500004f
:020000040000fa
:04004800640500004b
:020000040000fa
:04004c006405000047
:020000040000fa
:040050004205000065
:020000040000fa
:04005400e4040000c0
:020000040000fa
:040058008c04000014
:020000040000fa
:04005c00ea030000b3
:020000040000fa
:040060006405000033
:020000040000fa
:04006400640500002f
:020000040000fa
:04006800640500002b
:020000040000fa
:04006c006405000027
:020000040000fa
:040070006405000023
:020000040000fa
:04007400640500001f
:020000040000fa
:04007800640500001b
:020000040000fa
:04007c006405000017
:020000040000fa
:040080006405000013
:020000040000fa
:04008400640500000f
:020000040000fa
:04008800640500000b
:020000040000fa
:04008c006405000007
:020000040000fa
:040090006405000003
:020000040000fa
:0400940064050000ff
:020000040000fa
:0400980064050000fb
:020000040000fa
:04009c0064050000f7
:020000040000fa
:0400a0005203000007
:020000040000fa
:0400a400fa0200005c
:020000040000fa
:0400a80064050000eb
:020000040000fa
:0400ac0064050000e7
:020000040000fa
:0400b00064050000e3
:020000040000fa
:0400b40064050000df
:020000040000fa
:0400b80064050000db
:020000040000fa
:0400bc0064050000d7
:020000040000fa
:0400c00064050000d3
:020000040000fa
:0400c40064050000cf
:020000040000fa
:0400c80064050000cb
:020000040000fa
:0400cc0064050000c7
:020000040000fa
:0400d00064050000c3
:020000040000fa
:0400d40064050000bf
:020000040000fa
:0400d80064050000bb
:020000040000fa
:0400dc0064050000b7
:020000040000fa
:0400e00064050000b3
:020000040000fa
:0400e40064050000af
:020000040000fa
:0400e80064050000ab
:020000040000fa
:0400ec0064050000a7
:020000040000fa
:0400f00064050000a3
:020000040000fa
:0400f400640500009f
:020000040000fa
:0400f800640500009b
:020000040000fa
:0400fc006405000097
:020000040000fa
:040100006405000092
:020000040000fa
:04010400640500008e
:020000040000fa
:04010800640500008a
:020000040000fa
:04010c006405000086
:020000040000fa
:040110006405000082
:020000040000fa
:04011400640500007e
:020000040000fa
:04011800640500007a
:020000040000fa
:04011c006405000076
:020000040000fa
:040120006405000072
:020000040000fa
:04012400640500006e
:020000040000fa
:04012800640500006a
:020000040000fa
:04012c002c0500009e
:020000040000fa
:040130009a0300002e
:020000040000fa
:04013400640500005e
:020000040000fa
:04013800640500005a
:020000040000fa
:04013c006405000056
:020000040000fa
:040140006405000052
:020000040000fa
:04014400640500004e
:020000040000fa
:04014800640500004a
:020000040000fa
:04014c006405000046
:020000040000fa
:040150006405000042
:020000040000fa
:04015400640500003e
:020000040000fa
:04015800640500003a
:020000040000fa
:04015c006405000036
:020000040000fa
:040160006405000032
:020000040000fa
:04016400640500002e
:020000040000fa
:04016800640500002a
:020000040000fa
:04016c006405000026
:020000040000fa
:040170006405000022
:020000040000fa
:04017400640500001e
:020000040000fa
:04017800640500001a
:020000040000fa
:04017c006405000016
:020000040000fa
:040180006405000012
:020000040000fa
:04018400640500000e
:020000040000fa
:04018800640500000a
:020000040000fa
:04018c006405000006
:020000040000fa
:040190006405000002
:020000040000fa
:0401940064050000fe
:020000040000fa
:0401980064050000fa
:020000040000fa
:04019c0064050000f6
:020000040000fa
:0401a00064050000f2
:020000040000fa
:0401a40064050000ee
:020000040000fa
:0401a80064050000ea
:020000040000fa
:0401ac0064050000e6
:020000040000fa
:0401b00064050000e2
:020000040000fa
:0401b40064050000de
:020000040000fa
:0401b80064050000da
:020000040000fa
:0401bc0064050000d6
:020000040000fa
:0401c00064050000d2
:020000040000fa
:0401c40064050000ce
:020000040000fa
:0401c80064050000ca
:020000040000fa
:0401cc0064050000c6
:020000040000fa
:0401d00064050000c2
:020000040000fa
:0401d40064050000be
:020000040000fa
:0401d80064050000ba
:020000040000fa
:0401dc0064050000b6
:020000040000fa
:0401e00064050000b2
:020000040000fa
:0401e40064050000ae
:020000040000fa
:0401e80064050000aa
:020000040000fa
:0401ec0064050000a6
:020000040000fa
:0401f00064050000a2
:020000040000fa
:0401f400640500009e
:020000040000fa
:0401f800640500009a
:020000040000fa
:0401fc006405000096
:020000040000fa
:040200006405000091
:020000040000fa
:04020400640500008d
:020000040000fa
:040208006405000089
:020000040000fa
:04020c006405000085
:020000040000fa
:040210006405000081
:020000040000fa
:04021400640500007d
:020000040000fa
:040218006405000079
:020000040000fa
:04021c006405000075
:020000040000fa
:040220006405000071
:020000040000fa
:04022400640500006d
:020000040000fa
:040228006405000069
:020000040000fa
:04022c006405000065
:020000040000fa
:040230006405000061
:020000040000fa
:04023400640500005d
:020000040000fa
:040238006405000059
:020000040000fa
:04023c006405000055
:020000040000fa
:040240006405000051
:020000040000fa
:04024400640500004d
:020000040000fa
:040248006405000049
:020000040000fa
:04024c006405000045
:020000040000fa
:040250006405000041
:020000040000fa
:04025400640500003d
:020000040000fa
:040258006405000039
:020000040000fa
:04025c006405000035
:020000040000fa
:040260006405000031
:020000040000fa
:04026400640500002d
:020000040000fa
:040268006405000029
:020000040000fa
:04026c006405000025
:020000040000fa
:040270006405000021
:020000040000fa
:04027400640500001d
:020000040000fa
:040278006405000019
:020000040000fa
:04027c006405000015
:020000040000fa
:040280006405000011
:020000040000fa
:10040000ef5b21000eff27000e01880000000000b6
:10041000000020000000e000020032000001200087
:100420002002880014000700a90107000000e00076
:1004300003003a00201722000100200002003700cc
:100440000000200001002000810f70000100320038
:100450000f000700000020000000e0000200320052
:1004600000000200000000008413020000000000f1
:100470000040da000000fe00200020000000e00044
:1004800002003200100020009001880000000600e9
:10049000a1028800800478000000eb001f003700f4
:1004a000e284440054a0b4009905ba00e2844400f8
:1004b00054a0b4009906ba00e284440054a0b400e9
:1004c0000006eb00476fde00fd07b200ae018800ba
:1004d000636ce10003003a000ad801000000eb0061
:1004e0000e003700606ce10008003a00004deb00a0
:1004f0000a05e800020039003420ec000af0a000f0
:100500008b05e900f9ff3e00040037006168e10057
:10051000010032000086eb000b00070019c7ba008b
:100520000e04e0001905ba0003003a000a00e000da
:10053000dbff3a0000000600fe07b200ae028800b2
:100540008a047800f5ff37000cd0a300e20f4d00bd
:100550001c00390089027800354dba000a05e80010
:10056000020039003420ec000af0a0008b05e900fd
:100570000f003200254dba000a05e80002003900dc
:100580003420ec000af0a0008b05e90008003200de
:100590000c00e0000600320015cdba000a05e800a4
:1005a000020039003420ec000af0a0008b05e900bd
:1005b0008984e80054a0b4000b00e000e2ff3a0098
:1005c000000006009902ba00055d78008b05e9007d
:1005d000f7ff3200c82ade00055d78008b05e900d0
:1005e000f3ff32000c00e000f1ff320019ddba0029
:1005f000eeff3700809fbe000000fa00a1a8800037
:1006000000202000008060000000e00002003200b6
:1006100023e8a9002000370003e8a90019003700eb
:1006200090a88000104078000080fb00a011880096
:1006300090a880000000e80090a8880091a88000a1
:1006400080542100808f500002003a006051210048
:1006500090a88800a1a88000f0ef2f000080600023
:10066000a0a8880091a8800080a88000808f5000fa
:1006700004003a00a0a880000090a000a0a8880074
:1006800005003700911180000020200000806000ec
:100690000000e000e2ff32000080fa004f00be00e0
:1006a00000400600809fbe000000fa0019003700dd
:1006b00060a88000b1118000814078000148780076
:1006c00060a880000000e80060a8880061a88000a1
:1006d000a0572100808f500002003a008054210072
:1006e00060a88800a1a88000d0ff2f0000806000d3
:1006f000a0a8880061a8800070a88000808f5000aa
:1007000004003a00a0a880000000a000a0a8880073
:100710000400370090118000610060000000e000dc
:10072000e3ff3a0003c8a9000080fa004f00be00b2
:1007300000400600801f78000000fa009011800041
:10074000620060000000e000010032003222a900d7
:100750000848a9000080fa004f0078000040060019
:100760003600f800c028a9000000eb00291307009c
:100770003600f8002b130700c048a9001000200025
:10078000241307003600f800c068a90020002000ec
:10079000201307003600f800c088a90030002000b0
:1007a0001c1307003600f800c0a8a9004000200074
:1007b000181307003600f800c608a90070002000d2
:1007c000141307003600f800c488a900a000200018
:1007d00010130700809fbe00821f78003200f800cf
:1007e0003400f80010002000a00188001000200054
:1007f00090018800000000000000fa00f1808000f5
:1008000010032000808f500017003c00f080800013
:100810000118800000014000804a210000004100d2
:1008200001087800f080800080004000804a2100ac
:10083000008040009000780000818000808f500090
:1008400006003600f080800080004000804a2100d1
:10085000008040001000780000818800f080800057
:100860000000e800f080880010188000c0a4880014
:1008700020188000d0a4880030188000e0a48800f0
:1008800040188000f0a488005018800000a588005f
:100890006018800010a588007018800020a58800ce
:1008a00001a8a9000080fa003400f9003200f90024
:1008b0004f0178004f00be00004006003600f800ef
:1008c000809fbe00829fbe00849fbe00869fbe00a8
:1008d0000000fa0063120700905b210010407800ce
:1008e0008040e800905b210001487800805b210097
:1008f00011c0b300014878000068a9000080fa0028
:100900004f03be004f02be004f01be004f00be00ad
:100910003600f90000400600809fbe000000fa008b
:10092000a192800000202000008060000000e00014
:10093000020032002188a900200037000188a900a8
:100940001900370090928000104078000080fb0072
:1009500020118800909280000000e80090928800aa
:100960009192800060352100808f500002003a0093
:100970006025210090928800a1928000f0ef2f0066
:1009800000806000a0928800919280008092800098
:10099000808f500004003a00a09280000090a000d8
:1009a000a09288000500370011118000002020006f
:1009b000008060000000e000e2ff32000080fa00ea
:1009c0004f00be0000400600809fbe000000fa00fd
:1009d000190037006092800031118000814078005a
:1009e00001487800609280000000e8006092880072
:1009f0006192800060372100808f500002003a0031
:100a00006035210060928800a1928000d0ff2f0005
:100a100000806000a0928800619280007092800047
:100a2000808f500004003a00a09280000000a000d7
:100a3000a09288000400370010118000610060005f
:100a40000000e000e3ff3a000168a9000080fa001e
:100a50004f00be0000400600801f78000000fa0032
:100a600010118000620060000000e0000100320010
:100a70002222a9000828a9000080fa004f0078006f
:100a8000004006000000fa00148ea900148ea90090
:100a9000148ea900148ea900148ea900148ea9002a
:100aa000148ea900148ea900148ea900148ea9001a
:100ab000148ea900148ea900148ea8000148a90064
:100ac0000080fa00004006000040da000000fe004e
:100ad00000000500889fbe008a9fbe008c1f780022
:100ae000960007009d00330003866c006450e1000f
:100af0002e0032006420e100330032006150e1003a
:100b00002f0032006120e100310032008585550060
:100b1000eb07b000090020000804200005003700a2
:100b20000804440089844c000a0031000603430095
:100b300087834b000001530081815b00f8ff330085
:100b40000203be000800a0000804440089844c0091
:100b5000f6ff3900c639dd00830173000100320061
:100b6000130020008904d1000884d3000998a30051
:100b7000050032000800a7000300a0008904d1008e
:100b80000884d3008b05e8008904d1000884d300d1
:100b90000001eb000281d2002d00070001f0a1004e
:100ba0000cf0a70001f0a000750037006420e10000
:100bb000770032000801be000200be00f7ff3700d8
:100bc0006120e100720032006000b800f3ff3700de
:100bd0000000200001f82700f0ff37000001be00f0
:100be000410007000470a70003f0a10003f8a30070
:100bf00013003a006509b100100032000900350009
:100c00006928e1000200350001002800000005000d
:100c100000004000818048008502e900fcff3a00a6
:100c200000000600f88f4200050035008100d10069
:100c30000080d3008502e800fcff3a0000000600b7
:100c40008000eb00000005006011b800970037003d
:100c500081002000618055000b003d000b0020004a
:100c600061fe2f000100e1001d003400828171004f
:100c7000610164008904d1000884d3000000e80009
:100c8000faff3a0071002000610064000300700068
:100c9000020060000900320061044400e0844c005e
:100ca0000988a500050032008b05e8006808e1000e
:100cb00002003a008904d1000884d300f20f20001a
:100cc0000258e10005003d00c75ddd00f907b200f4
:100cd0008980750008007800000006000bf82700e6
:100ce0008b00780000000500c70ade00f107b200a3
:100cf000f50fb20008003200e1cf420002003200de
:100d00000170a00024000500810f70000100320076
:100d10000408050044000500810f700002003a003d
:100d2000140005008502e9000000400081c0480071
:100d3000fcff3b000170a000240005000004be0081
:100d4000e9ff07000003be000405be000200be006c
:100d5000e5ff0700844f7500000006000200be009a
:100d60006450e100050036006420e1000200360016
:100d70000968a30001003a000800be000160a0005d
:100d80004f0678004f05be004f04be00000006006d
:100d9000f0ff2f00f1ff2700f9ff3700889fbe000a
:100da0008a9fbe008c1f7800e4ff0700ebff330032
:100db00003866c006450e100240032006420e100ee
:100dc000270032006150e100220032006120e10082
:100dd000210032008b854200eb07b1000134b800de
:100de000003ab8000804420089844a00013ab80079
:100df0000030b8008880400009014a000400330038
:100e00000000400081804800020149008b05e90094
:100e1000c909dd00830170000100320013002000c9
:100e2000c814de004814dd004709de001200b200dd
:100e3000c808de000884700085ff070001f0a100eb
:100e40000cf0a70001f0a000cdff37006120e10009
:100e5000cfff32000801be000200be00f7ff3700de
:100e60006150e100fcff3a00c9ff37006022b80082
:100e7000060220000000d0008180d2000482d2004f
:100e80008582d2000000a0000202520083825a0034
:100e9000030031000202420083824a000000a100e8
:100ea0000603e900f3ff3a0000000600889fbe0039
:100eb0008a9fbe00008270000402710004827100eb
:100ec000260032000004be000200be006011b8001f
:100ed0006b092000950220000182cf000a00390032
:100ee0000541b1000082cf00070039000541b10083
:100ef0000982cf00040039000541b1000882cf000b
:100f0000010039000541b1000542520012003200d3
:100f10000a003b0082817100610164008100d10000
:100f20000080d3008984d3000884d3008b05e800b7
:100f30000442e800f7ff3a000700370008044400c5
:100f400089844c0000004800818048008b05e9003e
:100f50000442e900f9ff3a003dff07004f05be00db
:080f60004f04be000000060072
:020000040000fa
:100f68000000fa002023a8000080fa000000060014
:100f78000400fa00000f7800110798001e0078009e
:100f8800e20f500007003200e30f50000800320063
:100f9800e10f50000a003a009e009000316188007d
:100fa800080037009e009000316288000500370075
:100fb8009e009000316388000000000001003700a7
:100fc800000000000080fa00000006000000fa009f
:100fd800c3e8a80000000000000000000080fa003c
:100fe800000006000000fa00c3e8a90000000000a5
:100ff800000000000080fa00000006000400fa006b
:101008002047980060372100104078000080fb00de
:101018006101b900f0f72f00f1ff2f000200400036
:10102800838048009200200003002000820f5000b7
:10103800838f580092003e00000601000900370027
:101048000e0037001e003700090037000e00370079
:101058002900370031003700380037005a003700c0
:101068007e00370010c0b30002f0b70084003700dc
:1010780010c0b30007f0b7008100370010c0b300fc
:1010880004f0b7007e003700703721001040780068
:101098000080fb00c800dd00803721001040780088
:1010a8000080fb000080400080a4880010c0b300ce
:1010b80010f0b70010c0b30007f0b7007000370099
:1010c80070372100104078000080fb00c800dd0068
:1010d80080372100104078000080fb00008040002d
:1010e80060a4880010c0b30013f0b70010c0b300ac
:1010f80007f0b70062003700703721009040780091
:10110800304921000148780010c0b30014f0b7003e
:1011180010c0b30007f0b7005900370010c0b30083
:1011280003f0b70010c0b3000ef0b700b0a3800002
:1011380000e0a000b0a388005100370070372100fc
:10114800104078000080fb00c800dd0080372100d7
:10115800104078000080fb0000804000ea00b900e1
:10116800000f780040e720009e007800808f500034
:1011780006003e00001920009e007800808f500075
:10118800020036009e00780051a4880040e7200045
:101198009e007800808f500004003200b0a38000c9
:1011a80000f0a000b0a3880004003700b1a38000bd
:1011b800f0ff270000806000b0a3880010c0b300d3
:1011c80007f0b7002e003700703721001040780074
:1011d8000080fb008000eb00c801dd000200200059
:1011e80080372100104078000080fb008000eb0071
:1011f800c000dd000000200002014000838148009b
:1012080090372100104078000082fb008002eb003c
:101218004828dd00c820de00810070004820dd007d
:101228000201400083814800a03721001040780067
:101238000080fb008000eb00020040008380480033
:10124800a0a48800b1a4880010c0b30011f0b700b2
:1012580010c0b30007f0b70009003700703721004d
:10126800104078000004e0000300320010c0b30012
:1012780015f0b700020037001570ef0000000000fd
:101288000080fa00000006000200fa00004f780013
:101298000080fa00000006000200fa00000f780043
:1012a800c1a380001e007800808f500008003e0017
:1012b800300620009e007800808f50000400340023
:1012c8000dd0bf000004a2000004e00004003200ba
:1012d80034cea900350ea9000d70ef0029003700a3
:1012e800140ea800156ea800107180007000600030
:1012f8000000e0000e003a00917180000004200018
:10130800008060000000e0000700320034cea90031
:1013180000482100104078008040e8000048210083
:10132800014878000300370034cea80001003700d8
:1013380034cea800117280000000280000806000f0
:101348000000e0000e003a009171800000102000bb
:10135800008060000000e00007003200350ea900a0
:1013680000482100104078008040e8000048210033
:101378000148780003003700350ea8000100370047
:10138800350ea800c2a3800050a48000ea005000d7
:1013980010c0b300810f5100010031000040eb0084
:1013a8000080fa00000006000200fa00000f780032
:1013b8001e0078004400de00004078000080fb003a
:1013c800c104210000804000104078000080fa002d
:1013d800000006000200fa00000f78001e007800e6
:1013e8004400de00004078000080fb00c1142100aa
:1013f80000804000104078000080fa0000000600dd
:101408000200fa0010718000700060000000e00027
:1014180004003a00b0a380000000a000b0a3880038
:1014280004003700b1a38000e0ff2f0000806000b7
:10143800b0a38800117280000000280000806000be
:101448000000e00004003a00b0a380000030a000d3
:10145800b0a3880004003700b1a3800070ff2f00fc
:1014680000806000b0a38800117180000002200095
:10147800008060000000e00004003a00b0a3800093
:101488000010a000b0a3880004003700b1a38000ba
:10149800d0ff2f0000806000b0a38800117080008a
:1014a80000102000008060000000e00004003a0006
:1014b800b0a380000040a000b0a38800040037005b
:1014c800b1a38000f0fe2f0000806000b0a3880068
:1014d8009171800000042000008060000000e0009e
:1014e80004003200b0a380000020a000b0a3880050
:1014f80004003700b1a38000b0ff2f000080600017
:10150800b0a3880091718000001020000080600066
:101518000000e00004003200b0a380000050a000ea
:10152800b0a3880004003700b1a38000f0fd2f00ad
:1015380000806000b0a38800e04721009040780058
:1015480010c5b30080cf500004003e00b1a3800056
:10155800f0ff2d0000806000b0a38800e047210064
:101568009040780070c4b30080cf500004003e0063
:10157800b1a38000f0bf2f0000806000b0a38800f6
:10158800e04721009040780040c5b30080cf50006c
:1015980007003600b0a3800000d0a000b0a38800e8
:1015a800b1a38000f0bf2f0000806000b0a38800c6
:1015b800b1a3800000002200008060000000e0006d
:1015c80008003a00e047210090407800a0c4b3002a
:1015d80080cf500003003600b0a3800000a0a00018
:1015e800b0a38800c047210090407800d047210070
:1015f8001040780080cf500003003600c04721001b
:10160800104f780002003700d0472100104f7800b3
:1016180050c4b3009e40780080cf500004003e00c4
:10162800b1a38000f07f2f0000806000b0a3880085
:1016380000c4b3009e40780080cf500004003e00f4
:10164800b1a38000f0ef2f0000806000b0a38800f5
:10165800a0c4b3009e40780080cf50000700360039
:10166800b0a3800000b0a000b0a38800b1a38000a0
:10167800f0ef2f0000806000b0a38800b1a38000c5
:1016880000802000008060000000e00007003a00b1
:1016980050c4b3009e40780080cf5000030036004d
:1016a800b0a380000080a000b0a38800a04721005c
:1016b80090407800b04721001040780080cf50005b
:1016c80003003600a0472100104f780002003700c1
:1016d800b0472100104f780000c4b3009e40780046
:1016e80080cf500004003e00b1a38000f0ff2e0020
:1016f80000806000b0a38800b0c3b3009e407800ab
:1017080080cf500004003e00b1a38000f0df2f001e
:1017180000806000b0a3880050c4b3009e407800e9
:1017280080cf500007003600b0a3800000c0a000a2
:10173800b0a38800b1a38000f0df2f000080600014
:10174800b0a38800b1a380000000210000806000e1
:101758000000e00007003a0000c4b3009e40780093
:1017680080cf500003003600b0a380000090a00096
:10177800b0a388000080fa00000006000600fa0006
:10178800200798002e0090008000eb002cfd070039
:1017980002002a00a34a2400ccfc07006266260047
:1017a800633024007bfd07000200200003122400a0
:1017b80078fd0700008fbe001e0078009e00900094
:1017c80004fd0700000078000080fa000000060011
:1017d8001200fa0003fe07000000eb00000f78007b
:1017e8000a0037001e007800800040008049210070
:1017f80000804000900078001e0078000000400043
:101808000080e800013778001e0fe8001e0078000d
:10181800e70f5000f3ff3600ecfd07001e009000b4
:10182800d6ff0700c0a388002e009000defe070048
:10183800a1472100804878003e009000dafe0700aa
:10184800c1472100804878004e009000e1fe070063
:10185800e1472100804878006e009000d2fe070022
:10186800b1472100804878007e009000cefe070036
:10187800d147210080487800e1fe07000080fa0087
:10188800000006000000fa0040e7200050a488008d
:101898002049210011c0b30001487800e048210028
:1018a8008040eb0001487800f048210031c0b300c7
:1018b800014878000080fa00000006000000fa00e5
:1018c8006247210021c1b30010c9b3002f070700e8
:1018d8000080fa00000006000000fa0062472100bc
:1018e80021c1b30020c9b3005f0707000080fa00d8
:1018f800000006000000fa00a2482100e1c0b30081
:1019080040c9b300210707000080fa000000060064
:101918001e00fa00a0a48000b1a480004808de00e0
:1019280000407800004f7800a0a48000b1a4800097
:101938004008de000040780010479800a0a480000e
:10194800b1a480004809dd004800de0000007100f5
:10195800c808de000040780020479800a0a4800056
:10196800b1a48000004078003047980080a480002f
:101978004800de00004078004047980080a48000be
:10198800004078005047980010a4800021a48000ef
:101998004008de00004078006047980010a48000ee
:1019a80021a480004809dd004800de000000710025
:1019b800c808de00004078007047980010a4800036
:1019c80021a4800000407800004f9800108180001a
:1019d8004800de0000407800104f98001081800019
:1019e80000407800204f9800008080000040780078
:1019f800304f98001048210010407800404f980060
:101a080015d0bf00504f98000e017800e1c0b30018
:101a180000ccb300f50607000080fa0000000600bd
:101a28000000fa00a04721009040780020c2b300cf
:101a380080cf500014003e00b0472100904078004d
:101a480020c2b30080cf50000f003e00c0472100e5
:101a58009040780020c2b30080cf50000a003e00ba
:101a6800d04721009040780020c2b30080cf5000ba
:101a780005003e000dd0bf000004a2000004e000f5
:101a880001003200140ea900e047210090407800c0
:101a980010c2b30080cf500006003e000dd0bf003a
:101aa8000004a2000004e00002003200156ea90044
:101ab80001003700156ea8000080fa00000006003b
:101ac8000000fa0044d0bf000004e0000200320029
:101ad800710307002300370013d0bf000004e000a3
:101ae80004003200f20307000004e00001003200a5
:101af8001370ef0010d0bf000004e00004003200b3
:101b08000a0407000004e000010032001070ef0032
:101b180012d0bf000004e0000400320039040700be
:101b28000004e000010032001270ef0014d0bf0082
:101b38000004e000040032001b0407000004e00079
:101b4800010032001470ef0011d0bf000004e00063
:101b580004003200680407000004e00001003200bd
:101b68001170ef000080fa00000006000000fa0083
:101b7800107080004a00de00614060000080fb00b9
:101b88006100600032a48000e1ff2f008100610045
:101b98000100700030a4880011738000001020003c
:101ba8000080600000f0a7000000ea000000e900e3
:101bb8004f00de00004078000080fb0061006000fc
:101bc8000000400032a48000d1ff2f008100610096
:101bd8000100700030a48800907080004e00de0084
:101be800614060000080fb00610060004200dd0091
:101bf80032a48000b1ff2f00810061000100700055
:101c080030a48800107380004900de006140600045
:101c18000080fb00610060004300dd0032a480000a
:101c280071ff2f00810061000100700030a488005e
:101c38000080fa00000006000000fa0014eea90077
:101c48001c30ef000080fa00000006000000fa00d7
:101c580030a48000640060000000e000040032004e
:101c680030a48000620060000000e00005003a0037
:101c7800104821008040eb00014878001a30ef003e
:101c88008900370010482100104078000080fb00d0
:101c9800e20f500069003200e20f500005003c00de
:101ca8000000e0000a003200e10f5000200032007e
:101cb8006a003700e40f50003b003200e40f500088
:101cc80033003500e50f5000540032006300370040
:101cd80030a48000680060000000e00008003a00be
:101ce80030a48000610060000000e00004003a00b9
:101cf8001048210021c0b300014878006a0037006d
:101d080030a48000680060000000e0000400320099
:101d18001048210011c0b300014878006200370064
:101d28001048210051c0b300014878005e00370018
:101d380030a48000680060000000e0004d003a0018
:101d4800d08080000000e800d0808800d18080002a
:101d5800800c2000808f5000480036001a30ef00b9
:101d680030a48000610060000000e00004003a0038
:101d78001048210021c0b300014878004a0037000c
:101d88001048210031c0b3000148780046003700f0
:101d98001a30ef00a8ff07001048210041c0b30027
:101da800014878004000370030a4800068006000d7
:101db8000000e00033003a00917080000008200025
:101dc800008060000000e00030003200d080800019
:101dd8000000e800d0808800d1808000800c2000be
:101de800808f50002b0036001a30ef0030a480009e
:101df800610060000000e00004003a001048210083
:101e080021c0b3000148780027003700104821009e
:101e180051c0b300014878002300370030a4800087
:101e2800610060000000e0001c003a00104821003a
:101e380021c0b300014878001b00370030a480009f
:101e4800680060000000e000160032001048210021
:101e580011c0b30001487800130037001048210072
:101e68008040eb00014878001a30ef0000000000c5
:101e78000d003700000000000b00370000000000d4
:101e880009003700000000000700370000000000cc
:101e980005003700000000000300370000000000c4
:101ea80001003700000000000080fa000000060072
:101eb8000000fa0010482100104078000080fb0064
:101ec800e20f50000c003200e20f500005003c0009
:101ed8000000e00014003200e10f50000900320059
:101ee80014003700e40f500009003400e50f5000db
:101ef8000a0032000f003700b00020000080880080
:101f08000c003700700020000080880009003700ae
:101f18008000200000808800060037009000200024
:101f28000080880003003700a0002000008088009f
:101f3800000000000080fa00000006000000fa001f
:101f4800008080008000eb001201200003002000c8
:101f5800820f5000838f58003b013e0000060100ad
:101f680011003700260037007b003700900037004b
:101f7800a5003700bc003700e4003700e300370055
:101f8800e2003700e1003700e0003700e8003700e2
:101f9800080137001c0137002d0137002c013700dc
:101fa800bd003700cb003700608180000000e800ea
:101fb800608188006181800040062000808f500089
:101fc800250136000ed0bf000004e00002003200f8
:101fd8000040eb000100370010c0b3000df0b7005f
:101fe8000064200097010700006420009c0107009e
:101ff8002c30ef0010002000008088002b013700f3
:1020080061818000700c2000808f500008003e0025
:10201800608180000000e800608188000064200082
:1020280088010700006420008d01070008003700c0
:1020380061818000800c2000808f500004003a00ed
:10204800606d200086010700606d20007d0107009b
:10205800b1a3800000002200008060000000e000c2
:102068000a003a00b1a3800000002100008060004f
:102078000000e00005003a00b1a3800000802000c5
:10208800008060000000e000020032000d70ef00e8
:102098000601370004d0bf000004e0000c00320045
:1020a8000ed0bf000004e000020032000040eb0048
:1020b8000100370010c0b3000df0b7002c30ef005e
:1020c80020002000008088000470ef00f70037002f
:1020d80002d0bf000004e000100032000ed0bf00a4
:1020e8000004e000020032000040eb00010037006d
:1020f80010c0b3000df0b700c0da2000510107008e
:1021080000642000560107002c30ef00200020005a
:10211800008088000270ef00e400370003d0bf00a1
:102128000004e000ce0032000d70ef0010c0b300d4
:102138000ef0b70000642000420107000064200090
:10214800470107002c30ef000001200000808800c4
:102158000370ef00d50037000ed0bf000004e00088
:10216800020032000040eb000100370010c0b3004d
:102178000df0b700608180000000e80060818800f1
:1021880061818000800c2000808f5000b6003600ee
:102198002c30ef00006420002a01070000642000b2
:1021a8002f0107003000200000808800bf003700a2
:1021b8000ed0bf000004e000020032000040eb0037
:1021c8000100370010c0b3000df0b7006081800037
:1021d8000000e8006081880061818000800c200098
:1021e800808f5000a20036002c30ef004000200005
:1021f80000808800606d200012010700606d2000db
:1022080017010700a90037000ed0bf000004e00046
:10221800020032000040eb000100370010c0b3009c
:102228000df0b7006181800070022000808f50009f
:1022380004003e00608180000000e80060818800a2
:102248009a00370050a4800013fc07000004e00047
:10225800890032002c30ef000d70ef005000200094
:1022680000808800910037005efb07001e30ef00f9
:102278002030ef0055fb070010002000b0808800d8
:1022880034aea800042ea8002c30ef006000200017
:102298000080880085003700608180000000e80029
:1022a8006081880061818000800c2000808f500050
:1022b800730036002c30ef00606d2000e10007004d
:1022c800606d2000e60007001001200000808800f3
:1022d80076003700608180000000e8006081880097
:1022e80061818000800c2000808f500066003600dd
:1022f80010002000b080880034aea8002c30ef0019
:102308001000200000808800680037003049210054
:1023180010407800e14f500003003a00b000200060
:102328000080880061003700e1fe07005f00370089
:10233800608180000000e800608188006181800081
:1023480040062000808f500051003600c0da20007f
:10235800c30007002c30ef00008180006101b90044
:1023680060a480008000eb00809ab900828bb900dd
:1023780086027800050242000010b80001024200ff
:10238800840078000271220003002000b5fa0700db
:10239800000078001081880010c0b3000ff0b7006b
:1023a80010c0b30007f0b700c0002000008088000c
:1023b8003e003700608180000000e80060818800ee
:1023c80061818000800c2000808f50003200360030
:1023d80000642000a20007002c30ef00d00020008d
:1023e8000080880010a4800021a4800061004000c3
:1023f800e080480010a4880021a4880010c0b30021
:1024080012f0b70029003700608180000000e80062
:102418006081880061818000800c2000808f5000de
:102428001f0036002c30ef001000200000808800cc
:1024380030492100104078000004e0001a003a00fa
:10244800fdfd0700190037000000000017003700e5
:1024580000000000150037000000000013003700de
:102468000000000011003700000000000f003700d6
:10247800000000000d003700000000000b003700ce
:1024880000000000090037000000000007003700c6
:1024980000000000050037000000000003003700be
:1024a8000000000001003700000000000080fa0072
:1024b800000006000000fa0024d0bf000040e80039
:1024c80024f0b700410221009140780000c2b30017
:1024d80080cf5000030036002470ef0010c0b30016
:1024e80008f0b70025d0bf000040e80025f0b7008d
:1024f80025d0bf00e14f50000300360050a48000f3
:1025080065fb07002570ef00308180000000e800bf
:102518003081880031818000a01f2000808f50000a
:10252800030036002630ef0010c0b3000af0b700f1
:10253800408180000000e8004081880041818000df
:10254800f0042000808f5000030036002830ef0090
:1025580010c0b3000bf0b700508180000000e80005
:1025680050818800508180000000e00003003200a4
:102578002a30ef0010c0b3000cf0b7007bfd070055
:1025880030492100104078000004e00002003a00c1
:10259800aefd0700030037001048210061c0b300fa
:1025a8000148780065fe0700b08080000000e00068
:1025b80014003200b0808000e10f500002003600a5
:1025c80034aea900042ea900b08080000000e80005
:1025d800b0808800b1808000401f2000808f5000ac
:1025e800080036000ed0bf000004e00002003200f0
:1025f8000040eb000100370010c0b3000df0b70039
:102608001630ef0091708000000820000080600004
:102618000000e00009003a00e08080000000e800c7
:10262800e0808800e180800040062000808f500014
:102638000200360014eea8001c30ef000080fa00fb
:10264800000006000200fa00000f78009e007800e3
:102658002000200046fa07000080fa00000006006b
:102668000200fa00000f78009e0078001000200099
:102678003ffa07000080fa00000006000000fa0098
:1026880008d0bf000004e0001b0032000fd0bf00dc
:102698000004e000030032008ffc07000f70ef0019
:1026a8000700370007d0bf000004e0000300320035
:1026b8000770ef008ffc0700010037007ffc070060
:1026c8000870ef00207180004600de006140600065
:1026d8000004a200614060000080fb00610060000f
:1026e8004600dd0022718000f1fb2f0081006100af
:1026f80001007000207188000080fa0000000600c8
:102708000200fa0034cea900350ea900148ea900e3
:10271800db0707000000eb00000f780000482100ed
:102728008040eb00014878000000eb0080a488009e
:10273800304921008040eb00014878006000b80073
:1027480010a4880021a488004efc0700e2020700bc
:1027580039020700250ea90001fa070001eca800bc
:1027680024cea8000100370000000000d4fc0700b8
:10277800100407000080fb00000f78001e0078009e
:102788000000e000030034001e00780000407800dc
:102798001afa0700620407000080fb00000f7800a7
:1027a8001e0078000000e000030034001e007800de
:1027b80000407800b4fa07000cd0bf000004e00025
:1027c80029003200150ea800152ea80000fc0700ed
:1027d800207180004800de00614060000004a20013
:1027e800614060000080fb00610060004800dd007f
:1027f80022718000f1ef2f0081006100010070005c
:1028080020718800917080000040200000806000e6
:102818000000e000050032009170800000002100f7
:10282800008060000000e00004003a00b0a38000cf
:102838000060a000b0a3880004003700b1a38000a6
:10284800f0fb2f0000806000b0a38800150ea900df
:10285800152ea9000080800080407800f0472100f4
:10286800014878000c70ef0084ff07000ad0bf0011
:102878000004e000020032000a70ef0068fc070064
:102888000bd0bf000004e000b7ff32000b70ef0070
:102898001ffc0700b5ff37000200fa0044d0bf0054
:1028a8000004e0003a0032000112800000702000ad
:1028b800008060000000e00037003a00011280004c
:1028c80000082000008060000000e00034003200b2
:1028d8001170800000202000008060000000e000ef
:1028e80031003200510421009140780044d0bf00eb
:1028f80080cf500003003a004470ef004570ef00ad
:102908002a003700148ea900148ea900148ea9007d
:10291800148ea900148ea900148ea900148ea90083
:10292800148ea900148ea900148ea900148ea80074
:1029380045d0bf008080fb0030828000008f4000bf
:102948001e0078004800de0061006000a000b300af
:10295800401288001e007800004078000080fb00cc
:102968004012880045d0bf000080fb00a15921001b
:1029780000804000104078000080fb004012880072
:1029880045d0bf000040e80045f0b7000700370019
:1029980000000000050037000000000003003700b9
:1029a8000000000001003700000000000080fa006d
:1029b800000006000600fa0010079800210798009a
:1029c800148ea900148ea9002148a90041e2a9008b
:1029d80041e2a800148ea8001e0090004700de0007
:1029e800004078000080fb00630060008001b300b5
:1029f800401288001e00900000004000401288002d
:102a08004822ef004822ef004822ef004822ef005a
:102a180000000000011280000070200000806000ab
:102a28000000e000fbff3a000000000001128000f7
:102a380000082000008060000000e000fbff32007a
:102a4800148ea9000148a9002148a900401280005d
:102a5800004f780040128000004f7800401280003c
:102a6800804078002e009000014878002e009000e9
:102a78000000e80041128000814078000148780099
:102a88002e0090000080e80041128000814078000c
:102a9800014878002e009000630040004112800039
:102aa80081407800014878000080fa0000000600a4
:102ab8000000fa0044d0bf000004e0000200320029
:102ac8000040eb001700370060a480004800de00db
:102ad80080407800a05921000148780060a4800057
:102ae80080407800b059210001487800a0592100a1
:102af80090407800b05921001040780000c0400094
:102b08008040ea00c059210001487800b000200048
:102b18003082880030c0b30044f0b7004570ef0041
:102b280010c0b3000080fa00000006000000fa00a0
:102b380044d0bf000004e000020032000040eb0077
:102b48001700370080a480004800de00804078002d
:102b5800a05921000148780080a4800080407800b6
:102b6800b059210001487800a05921009040780010
:102b7800b05921001040780000c040008040ea00b1
:102b8800c059210001487800800020003082880068
:102b980030c0b30044f0b7004570ef0010c0b30078
:102ba8000080fa00000006000000fa0044d0bf00d0
:102bb8000004e000020032000040eb000f00370084
:102bc8003049210090407800a05921000148780040
:102bd800a0592100104078008040ea00b059210037
:102be80001487800e00020003082880020c0b3004f
:102bf80044f0b7004570ef0010c0b3000080fa0041
:102c0800000006000000fa0044d0bf000004e00005
:102c1800020032000040eb003500370010a48000ad
:102c280021a480004008de0080407800a0592100df
:102c38000148780010a4800021a480004809dd0024
:102c48004800de0000007100c808de0080407800ff
:102c5800b05921000148780010a4800021a4800008
:102c680080407800c059210001487800a05921000f
:102c780090407800b05921001040780080c0400092
:102c8800c05921001040780000c040000040ea0010
:102c980080407800d059210001487800a0592100cf
:102ca80090407800e059210001487800b05921008f
:102cb80090407800f059210001487800c05921005f
:102cc80090407800005a210001487800d05921002e
:102cd80090407800105a2100014878004630ef00f3
:102ce80080c0b30044f0b7004570ef0010c0b300d7
:102cf8000080fa00000006000000fa0044d0bf007f
:102d08000004e000020032000040eb002f00370012
:102d1800a0a48000b1a480004808de0080407800ac
:102d2800a059210001487800a0a48000b1a4800027
:102d38004008de0080407800b05921000148780042
:102d4800a0a48000b1a480004809dd004800de008e
:102d580000007100c808de0080407800c0592100da
:102d680001487800a0a48000b1a4800080407800c9
:102d7800d059210001487800a059210090407800de
:102d8800b05921001040780080c04000c05921008f
:102d98001040780080c04000d059210010407800d1
:102da80000c040000040ea0080407800e05921005f
:102db80001487800000120003082880050c0b3002c
:102dc80044f0b7004570ef0010c0b3000080fa006f
:102dd800000006000e00fa005007980061079800ee
:102de80066004700800078005e009000f1fe070052
:102df800ee4090007e40900080c040000e48900059
:102e080080c040001e48900000cf40001e4078005f
:102e18000004e000100032006600470080007800df
:102e28006e009000e3fe0700ee4090007e409000a8
:102e380080c040000e48900080c040001e489000ae
:102e480000cf40001e4078000004e000020032007d
:102e58006000b800170037006e4090000080fb004b
:102e68008000eb00c001dd00020020007e409000e1
:102e78000082fb008002eb004828dd00c820de004d
:102e8800810070004820dd00020140008381480075
:102e98000e4890000080fb008000eb00020040001c
:102ea8008380480010079800210798001e009000b2
:102eb800ae0090000080fa00000006000a00fa0048
:102ec8004007980064004700800078004e0090009a
:102ed800b8fe0700ce4090005e40900080c04000e1
:102ee8006e40900000cf40001e4078000004e000d3
:102ef800020032000000eb00080037004e4090004e
:102f08000080fb00c800dd005e4090000080fb00f0
:102f180000804000100798001e0090000080fa0012
:102f2800000006000800fa00100798002107980022
:102f3800624798002148a90041e2a90041e2a8009f
:102f4800148ea900148ea900148ea900148ea8004e
:102f58001e0090004700de00004078000080fb0063
:102f6800630060008001b300401288001e009000da
:102f7800000040004012880000000000011280009c
:102f880000702000008060000000e000fbff3a00b5
:102f9800000000000112800000082000008060008e
:102fa8000000e000fbff320040128000004f780074
:102fb80040128000004f78000040eb00004f78007e
:102fc800140037004822ef000000000001128000c2
:102fd80000702000008060000000e000fbff3a0065
:102fe800000000000112800000082000008060003e
:102ff8000000e000fbff32001e80fb00ae009000e6
:10300800008040004112800081407800014878002b
:103018001e4fe8006e4090009e40780080cf500020
:10302800e8ff3900148ea9000148a9002148a8002a
:103038000080fa00000006002000fa000e00e800f8
:1030480092c1b300800078000000eb00b5ff0700d4
:103058009e4090002e40900080c040003e4090006e
:1030680080c040004e40900000cf40001e407800d5
:103078000004e00016003a001e4090000080fb00ab
:103088008000eb00c001dd00020020002e4090000f
:103098000082fb008002eb004828dd00c820de002b
:1030a800810070004820dd00020140008381480053
:1030b8003e4090000080fb008000eb0002004000d2
:1030c8008380480010a4880021a4880023003700ca
:1030d800de4090006e40900080c040007e4090002e
:1030e80080c040000e48900000cf40001e4078008d
:1030f8000004e00016003a005e4090000080fb00eb
:103108008000eb00c001dd00020020006e4090004e
:103118000082fb008002eb004828dd00c820de00aa
:10312800810070004820dd000201400083814800d2
:103138007e4090000080fb008000eb000200400011
:103148008380480010a4880021a488000300370069
:103158006000b80010a4880021a488009e48900050
:103168002e48900080c040003e48900000cf4000ac
:103178001e4078000004e00008003a001e48900055
:103188000080fb00c800dd002e4890000080fb0096
:103198000080400080a48800020037000000eb0097
:1031a80080a48800ce4890005e48900080c040000f
:1031b8006e48900000cf40001e4078000004e000f8
:1031c80008003a004e4890000080fb00c800dd006f
:1031d8005e4890000080fb000080400060a48800ea
:1031e800020037000000eb0060a48800fe48900051
:1031f8000e50900000cf40001e4078000004e00010
:1032080004003a00fe489000304921000148780047
:1032180003003700304921008040eb000148780066
:103228009e5090002e50900080c040003e5090006c
:1032380080c040004e50900080c040005e5090001a
:1032480000cf40001e4078000004e0001d003a0056
:103258001e5090000080fb008000eb00c801dd00dc
:10326800020020002e5090000080fb008000eb0040
:10327800c000dd00000020000201400083814800fa
:103288003e5090000082fb008002eb004828dd00e1
:10329800c820de00810070004820dd0002014000e7
:1032a800838148004e5090000080fb008000eb00b6
:1032b8000200400083804800a0a48800b1a48800d0
:1032c800030037006000b800a0a48800b1a48800fb
:1032d8000080fa00000006000000fa002148a9005a
:1032e8000148a900148ea900148ea900148ea90003
:1032f800148ea900148ea900148ea900148ea9009a
:10330800148ea900148ea800900020004012880096
:1033180000000000011280000070200000806000a2
:103328000000e000fbff3a000000000001128000ee
:1033380000082000008060000000e000fbff320071
:1033480000082000401288000000000001128000e0
:1033580000702000008060000000e000fbff3a00e1
:1033680000000000011280000008200000806000ba
:103378000000e000fbff3200148ea900148ea900a3
:10338800148ea900148ea900148ea900148ea90009
:10339800148ea900148ea9000148a9002148a8008c
:1033a8000080fa00000006000400fa0010079800e8
:1033b80080c0b300004f7800010037000000000013
:1033c8001e00900061006000004078000004e000ea
:1033d800080032001e0090000000d100100798007d
:1033e8009e00900080402800008068001007980028
:1033f800030037001e0090000000d100100798005d
:103408001e4fe9001e4078000004e000ebff3a0080
:103418001e0090000080fa00000006000200fa007a
:10342800004f78009e80fb00a0818000008068002b
:10343800ddff0700a0818800e0c7b3009e40780048
:1034480080cf500004003200d0c7b3009e407800ff
:1034580080cf500004003a00d0c7b300ec02070048
:1034680000c2b3001e4f68001e407800e802070043
:103478000080fa00000006000200fa00004f780001
:103488009e80fb00f081800000806800c6ff070076
:10349800f0818800e0c7b3009e40780080cf5000dc
:1034a80004003200d0c7b3009e40780080cf50009f
:1034b80004003a00d0c7b300cb01070000c2b30034
:1034c8001e4f68001e407800c70107000080fa0000
:1034d800000006000000fa00e0c7b300cc020700b5
:1034e8000080eb00a08188002ed0bf00cbff070032
:1034f8000080fa00000006000000fa00e0c7b300f0
:10350800b90107000080eb00f081880038d0bf00c7
:10351800d9ff07000080fa00000006000200fa0048
:10352800a08180004800de00004f7800a081800064
:103538000040780000c0ea00b8ff07001ec0ea009b
:10354800b6ff0700e0c7b300b10207000080fa0029
:10355800000006000200fa00f08180004800de004a
:10356800004f7800f08180000040780000c0ea0039
:10357800c1ff07001ec0ea00bfff0700e0c7b30095
:10358800990107000080fa00000006000600fa0012
:103598002047980031479800220798002e41900054
:1035a800e102210082487800caff07000040eb00d2
:1035b800004f7800060037001e80fb00ae00900028
:1035c800008040001040780094ff07001e4fe8007c
:1035d8003e4090009e40780080cf5000f6ff3900b2
:1035e800ceff07000080fa00000006000600fa007f
:1035f8002047980031479800220798002e419000f4
:103608008103210082487800bbff07000040eb00df
:10361800004f7800060037001e80fb00ae009000c7
:10362800008040001040780093ff07001e4fe8001c
:103638003e4090009e40780080cf5000f6ff390051
:10364800c4ff07000080fa00000006000400fa002a
:10365800100798009e009000010f78001e00780067
:103668000080fa00000006000800fa0040479800b1
:1036780051479800320798004e419000e10221001e
:103688008248780093ff07000040eb00004f780065
:10369800060037001e80fb00be009000008040003e
:1036a800104078005dff07001e4fe8005e40900064
:1036b8009e40780080cf5000f6ff39000040eb00b4
:1036c800004f78000f0037001e80fb00800040008c
:1036d800804a21000080400010007800dbff0700ce
:1036e800100798001e009000004078004bff07006c
:1036f8001e0090004800de000040780047ff0700e9
:103708001e4fe80010c3b3009e40780080cf5000e1
:10371800edff360081ff07000080fa000000060078
:103728000600fa00204798003147980022079800c1
:103738000040eb00004f7800060037001e80fb00b9
:10374800ae00900000804000104078003002070072
:103758001e4fe8003e4090009e40780080cf500009
:10376800f6ff39000080fa00000006000000fa00a9
:10377800d0c7b300260207006237210061c0b3003a
:1037880090c8b30081ff07000080fa00000006001f
:103798000000fa00d0c7b300130107006237210008
:1037a80061c0b30090c8b30090ff07000080fa0022
:1037b800000006000400fa004a02070062006000e8
:1037c8000000e00002003a000040eb005200370021
:1037d800010321009140780011479800d6010700a5
:1037e800004f78009e4078000203210001497800cc
:1037f800d0c7b3009e40780080cf500006003a0042
:103808009e409000d0c7b30080cf500041003a00de
:103818002f70ef003f003700e0c7b3009e407800ec
:1038280080cf500019003a002fd0bf000004e000fc
:10383800140032009e409000d0c7b30080cf5000e3
:10384800100032002fd0bf00e24f50000d003600ac
:1038580091818000800b2f00808f500006003a0075
:103868002fd0bf0000c0e900204798002f70ef005c
:103878002e40900028003700b08180000000e8004a
:10388800b08188002f70ef00220037002fd0bf00d2
:103898000004e00004003a009e409000e0c7b30036
:1038a80080cf50001b003a002fd0bf000004e0007a
:1038b80002003a000080eb00908188009e40900052
:1038c800d0c7b30080cf500002003a0000c2b30056
:1038d8001e4f68002fd0bf000004e000080035002c
:1038e8002fd0bf000080fb0061372100008040001e
:1038f8001e4878002fd0bf000040e8002ff0b70026
:103908009e80fb009081800000806800a6fe070072
:10391800908188000040eb000080fa00000006005b
:103928000400fa00e5000700620060000000e00003
:1039380002003a000040eb0052003700a1032100ca
:10394800914078001147980071000700004f7800f7
:103958009e407800a203210001497800d0c7b30037
:103968009e40780080cf500006003a009e409000ac
:10397800d0c7b30080cf500041003a003970ef0043
:103988003f003700e0c7b3009e40780080cf50006a
:1039980019003a0039d0bf000004e00014003200da
:1039a8009e409000d0c7b30080cf50001000320076
:1039b80039d0bf00e24f50000d003600e181800091
:1039c800800b2f00808f500006003a002fd0bf00d8
:1039d80000c0e900204798003970ef002e409000a1
:1039e80028003700008280000000e800008288007c
:1039f8003970ef002200370039d0bf000004e00022
:103a080004003a009e409000e0c7b30080cf500009
:103a18001b003a0039d0bf000004e00002003a0061
:103a28000080eb00e08188009e409000d0c7b30082
:103a380080cf500002003a0000c2b3001e4f680059
:103a480039d0bf000004e0000800350039d0bf00bd
:103a58000080fb00613f2100008040001e48780084
:103a680039d0bf000040e80039f0b7009e80fb0065
:103a7800e0818000008068004bfe0700e08188003c
:103a88000040eb000080fa00000006000000fa0089
:103a980080002000801188003222ef00f02c2000e6
:103aa800c011880023c8a80031e2a8003342a8004a
:103ab8006051210090a888006051210080a88800ea
:103ac8008054210070a888008054210060a88800d4
:103ad800a0a880000010a000a0a88800a0a88000ce
:103ae8000090a000a0a88800a1a88000f0ef2f00f7
:103af80000806000a0a88800a1a88000e0ff2f0037
:103b080000806000a0a888000080fa00000006007d
:103b18000200fa000040eb00004f780070a8800017
:103b2800104f780070a880000000e80070a8880096
:103b380071a88000a0572100808f500002003a0031
:103b48008054210070a8880071a8800060a88000b7
:103b5800808f500003003a00a0a880000010a00049
:103b6800a0a88800a1a88000e0ff2f0000806000c6
:103b7800a0a888001e4078000080fa000000060017
:103b88000600fa00881f780010079800210798009f
:103b98000000eb00000f780009003700a0a88000a3
:103ba800620060000000e0000a003a001e00900079
:103bb8001e044000d6ff0700004c78001e0fe800e6
:103bc8002e0090009e007800808f5000f3ff39008f
:103bd80001003700000000001e0078004f04780044
:103be8000080fa00000006000200fa00004f78008a
:103bf80023e8a90080a880001e48780080a88000db
:103c08000000e80080a8880081a880008054210076
:103c1800808f500002003a006051210080a888007f
:103c2800a1a88000f0df2f0000806000a0a8880015
:103c380091a8800080a88000808f500003003a007f
:103c4800a0a880000080a000a0a8880023e8a80001
:103c58000080fa00000006000600fa00100798002d
:103c6800210798000000eb00000f78000a003700d9
:103c7800a1a8800000102000008060000000e00083
:103c88000a003a001e0090001e0040001040780014
:103c98001e0fe800d4ff07002e0090009e00780059
:103ca800808f5000f2ff390001003700000000004b
:103cb8001e0078000080fa00000006000200fa00ea
:103cc8000000eb00000f7800a1a880000010200081
:103cd800008060000000e000010032001e30a000fb
:103ce800a1a8800000202000008060000000e00003
:103cf800010032001e40a000a0a880006100600002
:103d08000000e000010032001e00a000a0a8800012
:103d1800620060000000e000020032001e20a000e7
:103d2800010037001e10a0001e0078000080fa0075
:103d3800000006000200fa00000f780070a880005a
:103d48009e004000a0572100808f500009003600d7
:103d580070a880009e004000a05721000000ea00e3
:103d6800008040008154210000804000104078000d
:103d78000300370070a880001e0040001040780043
:103d88000080fa00000006000000fa00a0a88000e9
:103d9800610060000000e0000f003a0071a8800098
:103da80060a88000808f50000500360070a8800051
:103db8008000780060a8800000805000070037006d
:103dc80070a880008000780060a880000080500003
:103dd8002003b000010037000000eb000080fa006b
:103de800000006000000fa00a1a8800000102000d2
:103df800008060000000e0000f003a0091a88000f9
:103e080080a88000808f50000500360090a88000b0
:103e18008000780080a880000080500007003700ec
:103e280090a880008000780080a880000080500062
:103e38002003b000010037000000eb000080fa000a
:103e4800000006000000fa00a0a880000000d100d1
:103e5800614060000080fb0000f0a7000000ea005d
:103e68000000ea004f00de00004078000080fa0001
:103e7800000006000000fa00a0a880004800de004c
:103e8800614060000080fb0000f0a7000000ea002d
:103e98000000ea004f00de00004078000080fa00d1
:103ea800000006000000fa00901180000080fa006f
:103eb800000006000000fa008000200000118800c1
:103ec8002222ef00f02c2000401188002168a80071
:103ed80021e2a8002342a8006025210090928800d2
:103ee800602521008092880060352100709288004a
:103ef8006035210060928800a09280000010a00028
:103f0800a0928800a09280000090a000a092880053
:103f1800a1928000f0ef2f0000806000a09288003e
:103f2800a1928000e0ff2f0000806000a09288002e
:103f38000080fa00000006000200fa000040eb00d2
:103f4800004f780070928000104f780070928000c7
:103f58000000e800709288007192800060372100ac
:103f6800808f500002003a0060352100709288006e
:103f78007192800060928000808f500003003a00a8
:103f8800a09280000010a000a0928800a19280005a
:103f9800e0ff2f0000806000a09288001e4078009b
:103fa8000080fa00000006000600fa00881f78006a
:103fb80010079800210798000000eb00000f780018
:103fc80009003700a0928000620060000000e00055
:103fd8000a003a001e0090001e044000d6ff0700a9
:103fe800004c78001e0fe8002e0090009e0078001c
:103ff800808f5000f3ff39000100370000000000f7
:104008001e0078004f0478000080fa0000000600c7
:104018000200fa00004f78002188a90080928000f1
:104028001e487800809280000000e8008092880096
:104038008192800060352100808f500002003a0094
:104048006025210080928800a1928000f0df2f0077
:1040580000806000a0928800919280008092800089
:10406800808f500003003a00a09280000080a000da
:10407800a09288002188a8000080fa0000000600ad
:104088000600fa0010079800210798000000eb00ce
:10409800000f78000a003700a1928000001020006d
:1040a800008060000000e0000a003a001e00900056
:1040b8001e004000104078001e0fe800d4ff0700e3
:1040c8002e0090009e007800808f5000f2ff39008b
:1040d80001003700000000001e0078000080fa0090
:1040e800000006000200fa000000eb00000f780054
:1040f800a192800000102000008060000000e00015
:10410800010032001e30a000a19280000020200093
:10411800008060000000e000010032001e40a000a6
:10412800a0928000610060000000e0000100320001
:104138001e00a000a0928000620060000000e00065
:10414800020032001e20a000010037001e10a0004f
:104158001e0078000080fa00000006000200fa0045
:10416800000f7800709280009e00400060372100a8
:10417800808f500009003600709280009e00400039
:10418800603721000000ea0000804000613521000e
:1041980000804000104078000300370070928000d3
:1041a8001e004000104078000080fa000000060061
:1041b8000000fa00a0928000610060000000e000aa
:1041c8000f003a007192800060928000808f50004a
:1041d80005003600709280008000780060928000b0
:1041e800008050000700370070928000800078003f
:1041f80060928000008050000002b000010037008b
:104208000000eb000080fa00000006000000fa0041
:10421800a192800000102000008060000000e000f3
:104228000f003a009192800080928000808f5000a9
:10423800050036009092800080007800809280000f
:1042480000805000070037009092800080007800be
:1042580080928000008050000010b00001003700fc
:104268000000eb000080fa00000006000000fa00e1
:10427800a09280000000d100614060000080fb0037
:1042880000f0a7000000ea000000ea004f00de008e
:10429800004078000080fa00000006000000fa00e4
:1042a800a09280004800de00614060000080fb00b2
:1042b80000f0a7000000ea000000ea004f00de005e
:1042c800004078000080fa00000006000000fa00b4
:0c42d800101180000080fa0000000600b9
:020000040000fa
:1042e4000c1500006e000000800000007a1500002c
:1042f40020000000800000004810000002000000c0
:1043040082000000ffff00004a10000002000000cd
:1043140080000000b81500000200000080000000ca
:10432400ba15000002000000800000004c120000da
:104334002a01000080000000bc15000002000000fb
:10434400800000004c100000000200008200000009
:10435400a29f9b00979390008c888400807d7900b5
:1043640075726f006d6a680066646200605f5d006c
:104374005c5a5900585655005453520051504f003e
:104384004e4d4c004b4a49004948470046454500bc
:10439400444343004241410040403f003e3e3d0013
:1043a4003d3c3c003b3b3a003a3939003838370051
:1043b4003736360035353500343433003332320085
:1043c40032313100313030002f2f2f002e2e2e00ad
:1043d4002d2d2d002c2c2c002b2b2b002a2a2a00cf
:1043e40029292900282828002727270027262600ee
:1043f4002625250025252400242423002323230007
:10440400222222002221210021212000202020001c
:104414001f1f1f001e1e1e001e1d1d001d1d1d0032
:104424001c1c1c001c1b1b001b1b1a001a1a1a0044
:104434001a19190019191800181818001817170054
:104444001717160016161600161515001515140064
:104454001414140014131300131313001212120073
:1044640012121100111111001110100010100f0080
:104474000f0f0f000f0e0e000e0e0e000e0d0d008e
:104484000d0d0d000c0c0c000c0b0b000b0b0b009a
:104494000a0a0a000a0a09000909090009080800a9
:1044a4000808080007a29d0098938e0089837e0067
:1044b400797470006d69670064625f005d5b590028
:1044c40058565400535250004f4e4d004b4a490029
:1044d40048474600454544004342410040403f00b0
:1044e4003e3d3d003c3b3b003a3a3900383837000a
:1044f4003736360035353400343332003232310049
:10450400313030002f2f2e002e2e2d002d2c2c007c
:104514002c2b2b002a2a2a002929290028282700a5
:1045240027272700262626002525250024242400c5
:1045340023232300222222002221210021202000e3
:10454400201f1f001f1f1e001e1e1e001d1d1d00fc
:104554001d1c1c001c1c1b001b1b1b001a1a1a0010
:104564001919190019191800181818001717170025
:104574001716160016161600151515001514140036
:104584001414140013131300131312001212120044
:104594001111110011111000101010000f0f0f0055
:1045a4000f0f0e000e0e0e000e0e0d000d0d0d0061
:1045b4000d0c0c000c0c0c000b0b0b000b0a0a006e
:1045c4000a0a0a000a09090009090900080808007a
:1045d4000808070007070700070606000606060086
:1045e4000505050005050400040404000404030093
:1045f4000303030003020200020200007614000019
:104604009600000080000000001000002e00000052
:10461400800000007613000000010000800000000c
:104624002e10000016000000800000009a15000003
:104634001e00000080000000441000000400000080
:084644008000000000000000ee
:020000040000fa
:10464c000000fa00c3e8a800000000000000000011
:10465c000080fa00000006000200fa00000f78004b
:10466c0021028000200f2000008060001e007000de
:10467c00200288000080fa00000006000000fa000a
:10468c00620107000e0007001c030700fefc070078
:10469c00b500070006fe070048030700bc01070031
:1046ac00160207006e020700c4020700e4ff0700b1
:1046bc0000022000e8ff07000080fa00000006005e
:1046cc000000fa0000142300203a88004827ef006d
:1046dc004e27ef0060072000303a88004420a900e4
:1046ec0044c0a90044e0a9004480a90012002000a5
:1046fc0080072000a1092000337420008049780035
:10470c008149780082497800120020006004200062
:10471c0071052000237420008049780081497800bd
:10472c008249780000000000103a800061006000af
:10473c000000e000fcff3a000080fa0000000600d8
:10474c000000fa00003a80000080fa000000060029
:10475c000200fa00faff0700000f78001e00780034
:10476c00240007000004e0000200320000002800d2
:10477c00710007001e0078002a0007000004e0000a
:10478c0002003200000024006b0007001e007800bd
:10479c00320007000004e00002003200002020007c
:1047ac00650007001e0078003a0007000004e000d6
:1047bc0002003200000820005f0007001e00780095
:1047cc00420007000004e000020032000004200058
:1047dc00590007001e0078004a0007000004e000a2
:1047ec000200320000012000530007000080fa0094
:1047fc00000006000400fa00100798000040eb00cf
:10480c00004f78001e0090000000e00002003d0008
:10481c0010c0b300004f78001e4078000080fa00f2
:10482c00000006000400fa00100798000040eb009e
:10483c00004f78009e009000000024000080600073
:10484c000000e0000200320010c0b300004f7800fe
:10485c001e4078000080fa00000006000400fa00f8
:10486c00100798000040eb00004f78009e0090006d
:10487c0000202000008060000000e00002003200f8
:10488c0010c0b300004f78001e4078000080fa0082
:10489c00000006000400fa00100798000040eb002e
:1048ac00004f78009e0090000008200000806000ff
:1048bc000000e0000200320010c0b300004f78008e
:1048cc001e4078000080fa00000006000400fa0088
:1048dc00100798000040eb00004f78009e009000fd
:1048ec0000042000008060000000e00002003200a4
:1048fc0010c0b300004f78001e4078000080fa0012
:10490c00000006000400fa00100798000040eb00bd
:10491c00004f78001e009000700060000000e00066
:10492c000200320010c0b300004f78001e40780027
:10493c000080fa00000006000200fa00000f780068
:10494c009e80ea00003a800000806000003a8800f7
:10495c000080fa00000006000000fa004027ef007b
:10496c000080fa00000006000000fa00001220008f
:10497c00101288001000200020128800400128002e
:10498c00001288000148a9002148a8000080fa0004
:10499c00000006000400fa00000f780011079800d0
:1049ac000000000000128000620060000000e000c7
:1049bc00fcff3a001e007800104078000080fb00dd
:1049cc00401288000000000001128000000220004c
:1049dc00008060000000e000fbff3a004012800005
:1049ec00804078001e009000014878000080fa009a
:1049fc00000006001800fa00100f9800210f980014
:104a0c00320f98000000eb00000f78000000eb0064
:104a1c00100798000000eb00700798000000eb00f6
:104a2c00000f980010002000600798001e089000ee
:104a3c000000e00005003a000000eb005007980071
:104a4c00700047002007980004003700ee0090002b
:104a5c00510798009e089000210798003e0890008e
:104a6c000000e00005003a000000eb004007980051
:104a7c006e0047003007980005003700ee009000ec
:104a8c0041079800be089000310798000000000014
:104a9c0000128000620060000000e000fcff3a00a1
:104aac001d00370000128000620060000000e00072
:104abc0009003a002e009000104078000080fb00a6
:104acc0040128800ae0090005e0090000080400014
:104adc00200798001e0fe800011280000002200041
:104aec00008060000000e0000b003a0040128000e3
:104afc00804078003e00900001487800be00900095
:104b0c004e00900000804000300798001e0090007e
:104b1c000000e800100798002e0890009e00780016
:104b2c00808f5000dfff3900100037000112800029
:104b3c0000022000008060000000e0000b003a0042
:104b4c0040128000804078003e00900001487800c0
:104b5c00be0090004e00900000804000300798008e
:104b6c001e0090000000e800100798009e009000c6
:104b7c002e089000808f5000ecff39001e0078004a
:104b8c000080fa00000006000400fa00204798009c
:104b9c000e80e8008e0078007eff07001e40780033
:104bac000080fa00000006000600fa00000f7800f2
:104bbc0011079800220798002e0190009e0090008b
:104bcc001e0078008bff07000080fa000000060032
:104bdc000000fa00111280000040200000806000ec
:104bec000000e00002003a000000eb00010037007a
:104bfc00100020000080fa00000006000000fa00ff
:104c0c00001280000080fa00000006000000fa008c
:104c1c00042eef00000c2000a0708800242eef0062
:104c2c00342eef00442eef0020002000a0728800ec
:104c3c00000420002073880010f821000070880008
:104c4c00e04025008070880070f32b000071880014
:104c5c00302eef0000002f000072880010002000a2
:104c6c008072880000382000007388000c2eef0042
:104c7c001c2eef002c2eef003c2eef004c2eef00e4
:104c8c005c2eef006c2eef0000202000507088008e
:104c9c001a2eef002a2eef003a2eef004a2eef00cc
:104cac005a2eef006a2eef00062eef00162eef00a4
:104cbc00262eef00362eef00462eef00562eef007c
:104ccc00662eef00108021007070880020002000fc
:104cdc00f070880070802000707188000000270040
:104cec0070728800113a8000f00b20000081600087
:104cfc006004200071052000237420008049780096
:104d0c0081497800824978002136800000f82f0014
:104d1c0080806000000620000100700020368800b2
:104d2c0081348000f00f2c00808060000030200067
:104d3c0001007000803488003136800000f82f00ac
:104d4c008080600070072000010070003036880001
:104d5c0071348000f00f2c00008060000080a000f7
:104d6c0070348800103a8000000178000260a000c6
:104d7c006004200071052000237420008049780015
:104d8c0081497800824978000080fa000000060012
:104d9c000000fa005000200010608800306f2800de
:104dac0020608800062cef00106020005060880006
:104dbc001a2cef001e2cef00000820000061880068
:104dcc0000082000006288000008200000638800b2
:104ddc0000402400e3c1200011322400d2bc2a0080
:104dec008209780081097800106188000040240055
:104dfc00e3c1200011322400d2bc2a0082097800c1
:104e0c00810978001062880000402000e3c1200076
:104e1c0011322400d2bc2a00820978008109780062
:104e2c0010638800b00f2000e3c120001132240071
:104e3c00d2bc2a00820978008109780020618800a0
:104e4c00b00f2000e3c1200011322400d2bc2a0094
:104e5c00820978008109780020628800b00f200058
:104e6c00e3c1200011322400d2bc2a008209780050
:104e7c008109780020638800006020003061880080
:104e8c000060200030628800662cef00282cef00b8
:104e9c00482cef00682cef002a2cef004a2cef0076
:104eac006a2cef002c2cef004c2cef006c2cef003c
:104ebc00322cef00522cef00722cef00342cef0050
:104ecc00542cef00742cef003a2cef005a2cef000e
:104edc007a2cef003c2cef005c2cef007c2cef00cc
:104eec003e2cef005e2cef007e2cef000000280023
:104efc00006088000080fa00000006000000fa0044
:104f0c000a21ef00e06c20007008880000002800e7
:104f1c0090088800c05b21008040eb0001487800bd
:104f2c000080fa00000006000000fa00014080003a
:104f3c0000102000008060000000e000090032003a
:104f4c00d05b2100104078008040e800d05b21004d
:104f5c0001487800c05b210011c0b3000148780003
:104f6c000108a9000080fa00000006000200fa0007
:104f7c00000f78009e00780071088800c05b21004b
:104f8c008040eb00014878000080fa000000060029
:104f9c000000fa00700880000080fa000000060093
:104fac000200fa00000f78009e007800510888007b
:104fbc00c05b21008040eb00014878000080fa00c3
:104fcc00000006000000fa00500880000080fa0083
:104fdc00000006000000fa00c05b21008040eb00de
:104fec000148780013e1a8000080fa0000000600d8
:104ffc000000fa0013e1a9000080fa00000006008e
:10500c000200fa00c05b2100104f78001e407800af
:10501c000004e00003003200c05b21008040eb0084
:10502c00014878001e4078000080fa00000006005d
:10503c000000fa00d05b2100104078000080fb00db
:10504c000080fa00000006000000fa00d05b21008e
:10505c008040eb00014878000080fa000000060058
:10506c000000fa000621ef000c21ef001021ef00e8
:10507c00a05b21008040eb00014878000080fa0022
:10508c00000006000000fa0001408000000820002b
:10509c00008060000000e00009003200b05b2100dd
:1050ac00104078008040e800b05b21000148780097
:1050bc00a05b210011c0b3000148780000e8a900f2
:1050cc000080fa00000006000200fa00000f7800d1
:1050dc009e00780061088800a05b21008040eb00f6
:1050ec00014878000080fa00000006000000fa0079
:1050fc00600880000080fa00000006000200fa0040
:10510c00000f78009e00780031088800a05b210019
:10511c008040eb00014878000080fa000000060097
:10512c000000fa00300880000080fa000000060041
:10513c000000fa00a05b21008040eb0001487800e1
:10514c0011e1a8000080fa00000006000000fa003f
:10515c0011e1a9000080fa00000006000200fa002c
:10516c00a05b2100104f78001e4078000004e00086
:10517c0003003200a05b21008040eb000148780066
:10518c001e4078000080fa00000006000000fa00c3
:10519c00b05b2100104078000080fb000080fa001a
:1051ac00000006000000fa00b05b21008040eb001c
:1051bc00014878000080fa00000006000000fa00a8
:1051cc000021ef00306f2800100888000001280033
:1051dc00200888000068a9002068a800805b2100d6
:1051ec008040eb00014878000080fa0000000600c7
:1051fc000200fa00000f78009e0078001108880069
:10520c00805b21008040eb00014878000080fa00b0
:10521c00000006000000fa00100880000080fa0070
:10522c00000006000200fa00000f78009e007800d3
:10523c0001088800805b21008040eb000148780069
:10524c000080fa00000006000000fa000008800050
:10525c000080fa00000006000000fa0094f4070039
:10526c000080fa00000006000000fa00805b2100bc
:10527c008040eb00014878002068a80005e1a800f8
:10528c000080fa00000006000000fa0005e1a90009
:10529c002068a9000080fa00000006000200fa0055
:1052ac00805b2100104f78001e4078000004e00065
:1052bc0003003200805b21008040eb000148780045
:1052cc001e4078000080fa00000006000000fa0082
:1052dc00905b2100104078000080fb000080fa00f9
:1052ec00000006000000fa00905b21008040eb00fb
:1052fc00014878000080fa00000006000000fa0067
:10530c0021428000f08f2f00008060000080a00000
:10531c002042880001438000f08f2f000080600045
:10532c000080a0000043880071428000f0ff28003c
:10533c000080600000c0a0007042880071428000b4
:10534c00f08f2f00008060000080a0007042880069
:10535c0031428000f0f82f00008060000040a00077
:10536c003042880001438000f0f82f00008060007c
:10537c000040a000004388003142800080ff2f00d5
:10538c00008060000000a0003042880021428000b4
:10539c00f0ff28000080600000c0a00020428800c0
:1053ac0001428000f0ff28000080600000c0a000d7
:1053bc00004288000080fa00000006000000fa009d
:1053cc00404428000019880000422200101988006f
:1053dc0090f02000201988002823ef002e23ef00e6
:1053ec00107c2600801988002623ef0010198000fd
:1053fc004200de007f4060004af0b70021a8a80000
:10540c000080fa0000000600000f78009e00780073
:10541c0041828800ffff37000000fa00a0572100ee
:10542c008007780020592100000188000080fa00d4
:04543c000000060066
:020000040000fa
:020000040005f5
:045fe000cfff0000ef
:020000040000fa
:020000040005f5
:045fe400ffff0000bb
:020000040000fa
:020000040005f5
:045fe8007fff000037
:020000040000fa
:020000040005f5
:045fec007bff000037
:020000040000fa
:020000040005f5
:045ff000f8ff0000b6
:020000040000fa
:020000040005f5
:045ff400ffff0000ab
:00000001FF
